:020000040800F2
:10000000D00C0020010100086135000835290008E6
:100010005D350008FF0A0008D94200080000000012
:10002000000000000000000000000000213800086F
:10003000790C000800000000FF3500089538000822
:100040001B0100081B0100081B0100081B01000820
:100050001B0100081B0100081B0100081B01000810
:100060001B0100081B0100081B0100081B01000800
:100070001B0100081B0100081B0100081B010008F0
:100080001B0100081B0100081B0100081B010008E0
:100090001B0100081B0100081B0100081B010008D0
:1000A0001B0100083D3D00081B0100081B01000862
:1000B0004D3D00085D3D00086D3D00081B01000836
:1000C0001B0100081B0100081B0100081B010008A0
:1000D0001B0100081B0100081B0100081B01000890
:1000E0001B0100081B0100081B010008DFF80CD0F1
:1000F00000F0B2FC00480047794D0008D00C002009
:100100000648804706480047FEE7FEE7FEE7FEE7B1
:10011000FEE7FEE7FEE7FEE7FEE7FEE73B3D000801
:10012000ED000008202A04DB203A21FA02F0002129
:10013000704721FA02F3D040C2F1200291400843F7
:1001400019467047D2B201E000F8012B491EFBD2DC
:1001500070470022F6E710B513460A4604461946D2
:10016000FFF7F0FF204610BDF0B480EA0102D40F83
:100170004200B2EB410F02D20246084611464A0045
:1001800042D0C30DDDB2C1F3C752AD1A202D35DA0E
:10019000C1F3160141F4000204B15242C5F1200638
:1001A00002FA06F12A411044B3EBD05F23D0C4B168
:1001B000012DA0EBC35009DCF0BC4FF0004202EA75
:1001C000C352DBB200F5000000F026BB400000F196
:1001D000807000EBC350A0F1807040EAD1704900FC
:1001E00009E0490841EAC071A0EBC35000F50000E6
:1001F000400800EBC350F0BC00F005BB6142012297
:1002000002EB4101001BF6E7F0BC704781F00041B2
:10021000AAE780F00040A7E780EA010210B502F0EB
:100220000043400022D04A001FD0010E01EB1261B2
:10023000C0F35600C2F3560240F4000042F400023C
:10024000A0FB022000047F39140400D0401C50EAB7
:10025000124001D44000491EC2B20C0604EBD0107B
:10026000401C4008802A02D003E0002010BD20F08E
:100270000100002900DA0020184310BD30B480EAE4
:10028000010202F0004530F0004221F0004013D09E
:1002900090B1C30DD40DC2F31601C0F31600E41AD9
:1002A00041F4000140F400027D34914201D3641C0A
:1002B00000E04900002C02DA30BC002070474FF407
:1002C00000000023914201D3891A034340084FEAFA
:1002D0004101F7D151B1914202D14FF0004105E007
:1002E00002D24FF0010101E06FF0010103EBC450B5
:1002F000284430BC00F087BA2DE9FE4F804681EAE1
:100300000300C00F0C46009021F0004123F000458F
:10031000B8EB0200A94105D24046214690461C4652
:100320000B46024623F00040104347D0270DC7F389
:100330000A00C3F30A510290401A019040286BDA78
:10034000C3F3130040F4801B0098924620B10023B1
:10035000D2EB030A63EB0B0B01985946C0F1400244
:10036000504600F02FFA06460D4650465946019A6F
:1003700000F037FA10EB08006141002487EA1152BF
:1003800084EAE7731A4340D0009A62B3019A012AC3
:100390004FEA075215DC001B61EB02014FF00042EF
:1003A00002EA0752CDE90042001C41F580113246B5
:1003B0002B4600F06EFA03B0BDE8F08F40462146B0
:1003C000F9E7001B61EB0201001C41F580130018E6
:1003D0005B412018A2F5001747EB030140EAD570F6
:1003E000B6196D4111E06D084FEA360645EAC07551
:1003F0004FEA0752001B61EB0201001C41F580111E
:1004000049084FEA30000019514132462B4603B0EB
:10041000BDE8F04F00F02EBA009801224000002302
:10042000D0EB020263EBE073009821464FEAE074E0
:10043000B8EB000061EB0401E9E783F000435BE700
:1004400081F0004158E72DE9FE4F81EA030404F0F2
:10045000004421F0004100944FF0000B23F00043D2
:1004600050EA01045ED052EA03045BD0C3F30A549D
:10047000C1F30A552C44A4F2F3340194A0FB0254B6
:10048000C1F3130141F48011C3F3130343F4801348
:1004900001FB024400FB034E840A970A44EA81549C
:1004A00047EA8357A4FB076802958D0A05FB078579
:1004B0004FEA932C04FB0C542705029D4FEA065883
:1004C00047EA1637B5EB08056EEB070C870E920E60
:1004D00047EA811742EA8312A7FB0201B6EB0B0140
:1004E00064EB00042B0D43EA0C335E1844EB1C5004
:1004F000DA465146E7FB0201C5F313044FEA0B331A
:1005000043EA14534FEA0432019C43EA0603A4F180
:100510000C040294009CCDE900B400F0BAF903B0D9
:10052000BDE8F08F00200146F9E72DE9F04D81EAA2
:10053000030404F0004B21F0004514464FF0000A7C
:1005400023F0004150EA050220D054EA01021DD0F8
:10055000C5F30A570246C5F31303C1F31300C1F3F1
:100560000A5640F4801543F48013A7EB0608101BCD
:10057000D64608F2FD3873EB050002D308F10108F6
:1005800001E092185B41B8F1000F03DA0020014648
:10059000BDE8F08D00204FF48011064684460EE041
:1005A000171B73EB050705D3121B63EB050306430B
:1005B0004CEA010C49084FEA300092185B4150EABE
:1005C0000107EDD152EA030012D082EA040083EA67
:1005D0000501084305D0101BAB4106D201220023C0
:1005E00006E000224FF0004302E06FF001025310DA
:1005F0001AEB06004CEB085110EB0A0041EB0B0123
:10060000BDE8F04D00F036B9C10F80EAE070084453
:10061000CA079623002100F0FFB896230022114656
:1006200000F0FAB80EB5C10F80EAE0700844CA07BE
:10063000002140F233438DE80E000A460B4600F0DD
:1006400028F903B000BD00F0004220F00040C10DC9
:10065000C0F3160040F400007F2901DA0020704743
:10066000962903DCC1F19601C84001E09639884023
:10067000002AF4D04042704720F00040C10DC0F382
:10068000160040F400007F2901DA00207047962907
:1006900003DCC1F19601C840704796398840704725
:1006A00070B5C1F30A5201F000450024C1F31301F3
:1006B00040F2FF3341F480119A4201DA002070BD0C
:1006C00040F233439A42A2F2334203DC5242FFF734
:1006D00029FD00E090402C43F1D0404270BD00F075
:1006E000004230F000400AD0C10D01F56071C0F346
:1006F000160042EA0151C20840071143704700202A
:100700000146704730B5041E71F1000404DB4FF060
:100710000044404264EB0101141E73F1000405DB48
:100720001C464FF00043524263EB04038B4208BF68
:10073000824230BD30B5041E71F1000404DB4FF07D
:100740000044404264EB0101141E73F1000405DB18
:100750001C464FF00043524263EB0403994208BF2A
:10076000904230BD01F0004330B421F0004150EA26
:10077000010206D00A0DA2F56072C1F31301002A2E
:1007800002DC30BC00207047440F44EAC104C100C1
:10079000E01830BC00EBC25000F035B8002801DB97
:1007A000C0F10040002901DBC1F1004181427047E6
:1007B000002801DBC0F10040002901DBC1F100414C
:1007C00088427047202A04DB203A00FA02F1002018
:1007D00070479140C2F1200320FA03F3194390407F
:1007E0007047202A06DBCB17203A41FA02F043EA91
:1007F000E07306E041FA02F3D040C2F120029140DA
:100800000843194670470029A8BF7047401C49009B
:1008100008BF20F00100704710B4B0FA80FC00FA65
:100820000CF050EA010404BF10BC704749B1CCF190
:10083000200421FA04F411FA0CF118BF012121431C
:100840000843A3EB0C01CB1D4FEA00614FEA1020D7
:1008500042BF002010BC704700EBC3501044002979
:10086000A4BF10BC7047401C490008BF20F0010025
:1008700010BC704710B5141E73F1000408DA401C58
:1008800041F1000192185B411A4301D120F00100AF
:1008900010BD2DE9F04D92469B4611B1B1FA81F29F
:1008A00002E0B0FA80F220329046FFF78BFF044658
:1008B0000F4640EA0A0041EA0B0153465A460843F4
:1008C00013D0114653EA010019D0C8F14002504636
:1008D000FFF728FC05460E46504659464246FFF7AC
:1008E00071FF084305D0012004E020463946BDE8E9
:1008F000F08D0020054346EAE0762C4337430A9802
:100900006305E40AA0EB08000022FD0A44EA47540C
:100910000A3002D500200146E9E7010510196941B6
:10092000DDE9084500196941BDE8F04DA2E72DE970
:10093000F04D00231A461B1A8A4103DB00200146B2
:10094000BDE8F08DC1F30A52C1F3130141F48015E3
:100950004FF0000BD10702D100186D41521E002745
:10096000044640F2FF11384601EB620A3E468046DB
:10097000024600204FF48011FFF7D4FBC2197141E9
:10098000BB1846EB0100B4EB030C75EB000C04D371
:10099000E41A65EB000517460E46241908F101001C
:1009A0006D4180463428E3DDF91946EB0600091B4A
:1009B000A84103D24FF0FF32134601E00022134654
:1009C0001BEB070046EB0A51BDE8F04DFFF752BFA5
:1009D0002DE9FE4FC3F30A5701F000450024C1F38F
:1009E0000A56C3F31303C1F3130143F4801312EB4C
:1009F000020AA64641F48011009543EB030CA7F1CF
:100A0000010B16E0B0EB0A0061EB0C01071E71F15F
:100A1000000707DA4FF00008D0EB080085F000452A
:100A200068EB0101171A73EB0107EBD3761E001870
:100A300049415E45F6DA50EA010209D0CDE900E508
:100A4000002213460296FFF724FF03B0BDE8F08FA3
:100A500020460099F9E70000064C074D06E0E068E3
:100A600040F0010394E8070098471034AC42F6D3F5
:100A7000FFF740FBE85500080856000870B521F064
:100A8000004303430CD0C1F30A550024D5EB040501
:100A900064EB0403D617AD1AB34102DB0020014614
:100AA00070BD201841EB025170BD0EB540F23341CC
:100AB00002910021CDE900110A460B46FFF7E9FE3D
:100AC00003B000BD30B58C1810F8012B12F00F03E5
:100AD00001D110F8013B120906D110F8012B03E0F7
:100AE00010F8015B01F8015B5B1EF9D101E001F830
:100AF000013B521EFBD1A142E6D3002030BD00BF16
:100B0000FEE7000010B504462146024802F037FD1A
:100B100010BD00009801002070B504F095F8074959
:100B2000086004F091F8044605480068FFF76CFD82
:100B300005462146FFF770FB70BD0000B0000020A5
:100B40007400002010B504462146024802F017FD4B
:100B500010BD00006001002070B504F0ABF80B4937
:100B600008600B480068FFF74FFD0546074801681D
:100B70002846FFF751FB04462146064801F0FAFFDC
:100B8000054908600846006870BD0000B8000020F4
:100B90007400002054010020B400002070B5044609
:100BA0000D4610480460104805601049104802F0D6
:100BB000CDF84FF47A7000F001F902F033FE02F044
:100BC00033FD0C490860084600680B49086402229E
:100BD00040310A4802F08AFD0449002002F0B6F8CC
:100BE00070BD00007000002074000020E4CB96402F
:100BF000000040406C000020F806002000F80008CB
:100C000070B5044602F010FD05462946204604F062
:100C1000CDFA70BD2DE9F0470446FFF77DFF07468A
:100C20001249FFF7F9FA06461149FFF727FB054677
:100C30001048416C2846FFF7E9FA0E490860FFF7B3
:100C40008BFF80460B4801682046FFF7DFFA81469C
:100C5000FFF758FF07464146FFF7D8FA0646FFF769
:100C600071FF0546FFF7CCFFBDE8F0870000344375
:100C7000DB0F4940F8060020704772B600BFFEE760
:100C80000022054BDA61054A126942F00102034B6A
:100C90001A61018070470000B00800200020024067
:100CA00000201E49C96801F0100139B11C49C96909
:100CB00041F002011A4AD16140F010001749C96899
:100CC00001F0040139B11649C96941F00101144A22
:100CD000D16140F004001149C96901F0010169B115
:100CE0000F49C96941F004010D4AD16100BF0B49A8
:100CF000C96921F00101094AD16100BF00BF40F27A
:100D00000111884206D10549C96921F00101034A50
:100D1000D16101E00149C86000BF70470020024076
:100D2000B008002070B5044600F074FA054609E0EA
:100D3000601C38B124B100F06DFA401BA04201D90B
:100D4000032070BD1248C06800F001000028EFD1F8
:100D50000F48C06800F0200020B100BF20200C49DF
:100D6000C86000BF0A48C06800F0100048B90848D1
:100D7000C06900F0010020B90548C06800F0040017
:100D800018B1FFF78DFF0120DBE70020D9E7000055
:100D9000002002400021074AD1610749096941F05A
:100DA0000201054A116111464861096941F040019B
:100DB00011617047D00100200020024070B5044648
:100DC00000F028FA06462546681C10B10448007851
:100DD000054400BF00F01EFA801BA842FAD370BD84
:100DE000480100200348006940F080000149086183
:100DF00000207047002002402DE9FE4F05468B463B
:100E000017469846012600240020029000BF24487F
:100E1000007E012802D10220BDE8FE8F012020497A
:100E2000087600BF4CF25030FFF77CFF064686BBC9
:100E3000012D02D10120029006E0022D02D10220F4
:100E4000029001E00420029000241EE02201B94635
:100E5000C24648465146FFF765F980B2019002202C
:100E600000FB04B000900199FFF70AFF4CF25030EC
:100E7000FFF758FF06460B48006920F001000949BA
:100E8000086106B104E0601CC4B202988442DDDB54
:100E900000BF00BF00200249087600BF3046BBE714
:100EA000B00800200020024000200849096901F034
:100EB000800151B10649054A516006495160114609
:100EC000096901F0800101B1012070470020024052
:100ED00023016745AB89EFCD2DE9F8470346002292
:100EE00094466EE14FF0010808FA02F4D1F8008050
:100EF00008EA0400A0427DD1DFF8DCA2D1F804802A
:100F0000A8EB0A09D0453AD014DCB8F1030F50D051
:100F100009DCB8F1000F31D0B8F1010F1CD0B8F1E5
:100F2000020F49D120E0B8F1110F18D0B8F1120F1B
:100F300042D11EE0B9F5881F25D006DCB9F5803F07
:100F400020D0B9F5801F37D11AE0B9F5001F18D0AD
:100F5000B9F5041F30D117E0D1F80CC02DE0D1F85D
:100F60000C8008F1040C28E0D1F80C8008F1080C82
:100F700023E0D1F80C8008F10C0C1EE000BF00BF8C
:100F800000BF00BF00BF00BFD1F80880B8F1000F5C
:100F900002D14FF0040C0BE0D1F80880B8F1010F3A
:100FA00003D14FF0080C1C6102E04FF0080C5C61AB
:100FB00003E04FF0000C00E000BF00BFFF2801D8A5
:100FC000984601E003F104084646FF2802D84FEA9C
:100FD000820803E0A2F108084FEA88084746D6F8DD
:100FE00000804FF00F0909FA07F928EA09080CFAFE
:100FF00007F900E088E048EA0908C6F80080D1F85F
:10100000048008F08058B8F1805F7DD100BFDFF820
:10101000CC81D8F8188048F00108DFF8C091C9F8F1
:101020001880C846D8F8188008F00108CDF800806C
:1010300000BF00BF4FEAB9384FEA920958F829506B
:101040004FEA82784FEA18794FF00F0808FA09F84A
:1010500025EA0805DFF88881434502D14FF00008F2
:1010600016E0DFF88081434502D14FF001080FE020
:10107000DFF87481434502D14FF0020808E0DFF841
:101080006C81434502D14FF0030801E04FF00408A2
:101090004FEA82794FEA197908FA09F848EA050512
:1010A000DFF84C814FEA920948F82950D1F80480C2
:1010B00008F48018B8F5801F0AD1DFF83881D8F815
:1010C000008048EA0008DFF82C91C9F8008009E0A8
:1010D000DFF82081D8F8008028EA0008DFF81491B2
:1010E000C9F80080D1F8048008F40018B8F5001F92
:1010F00010D1DFF8008108F10408D8F8008048EA30
:101100000008DFF8F09000E05AE009F10409C9F89E
:1011100000800DE0DFF8DC8008F10408D8F80080DA
:1011200028EA0008DFF8CC9009F10409C9F800802A
:10113000D1F8048008F40038B8F5003F0ED1DFF88C
:10114000B480A8F10408D8F8008048EA0008DFF865
:10115000A490A9F10409C9F800800DE0DFF894809B
:10116000A8F10408D8F8008028EA0008DFF8849085
:10117000A9F10409C9F80080D1F8048008F4803886
:10118000B8F5803F0ED1DFF86C80A8F10808D8F8D8
:10119000008048EA0008DFF85C90A9F10809C9F866
:1011A00000800DE0DFF84C80A8F10808D8F8008036
:1011B00028EA0008DFF83C90A9F10809C9F8008086
:1011C000521CD1F8008028FA02F8B8F1000F7FF421
:1011D00089AEBDE8F8870000000011100010024041
:1011E00000080140000C01400010014000140140C3
:1011F0000800014008040140024693680B400BB10F
:10120000012000E0002070470AB1016101E00B04F9
:1012100003617047014800687047000040010020EA
:101220000348006803490978084401490860704789
:10123000400100204801002010B50848006840F037
:10124000100006490860032000F0A8F80F2000F005
:1012500007F800F02BF8002010BD0000002002402D
:1012600070B504460E4800784FF47A71B1FBF0F087
:101270000C490968B1FBF0F5284600F0F9FB08B10C
:10128000012070BD102C07D200222146501E00F014
:1012900047F80548046001E00120F2E70020F0E78C
:1012A000480100204C0100204401002008B500BF87
:1012B0001148806940F001000F4988610846806943
:1012C00000F00100009000BF00BF00BF0846C069E9
:1012D00040F08050C8610846C06900F0805000901E
:1012E00000BF00BF00BF0549486820F0E06040F043
:1012F0000070486000BF08BD0010024000000140BF
:1013000001460846002809DB00F01F0301229A402D
:1013100043099B0003F1E023C3F8002100BF70479D
:101320002DE9F05F80460D461646002702F0EAFFE1
:10133000074639462A46334601F00700C0F1070A3E
:10134000BAF1040F02D94FF0040A01E0C0F1070A14
:10135000D14600F1040ABAF1070F02D24FF0000A99
:1013600001E0A0F1030AD4464FF0010A0AFA09FA93
:10137000AAF1010A0AEA020A0AFA0CFA4FF0010B72
:101380000BFA0CFBABF1010B0BEA030B4AEA0B0463
:101390002146404602F0BEFFBDE8F09F00BF00F0CE
:1013A0000702064B19684FF6FF031940044B0B4325
:1013B00043EA0221014B196000BF70470CED00E0C9
:1013C0000000FA0570B504460D460CB9012070BD49
:1013D0005A48006800F00700A8420ED2574800683B
:1013E00020F007002843554908600846006800F0CF
:1013F0000700A84201D00120E9E7207800F00200B0
:1014000002281DD1207800F00400042805D14C48A2
:10141000406840F4E0604A494860207800F00800E5
:10142000082805D14648406840F460504449486067
:101430004348406820F0F000A168084340494860F4
:10144000207800F0010078B36068012806D13C489C
:10145000006800F4003090B90120B8E76068022805
:1014600006D13748006800F0007040B90120AEE7AF
:101470003348006800F0020008B90120A7E73048AF
:10148000406820F00300616808432D494860FFF779
:10149000C1FE064609E0FFF7BDFE801B41F2883120
:1014A000884202D9032092E707E02548406800F00F
:1014B0000C006168B0EB810FEDD12048006800F0AE
:1014C0000700A8420ED91D48006820F007002843F5
:1014D0001A4908600846006800F00700A84201D0D9
:1014E000012074E7207800F00400042807D1144894
:1014F000406820F4E060E1680843114948602078C2
:1015000000F00800082808D10D48406820F4605019
:10151000216940EAC1000A49486000F03FF80849E3
:101520004968C1F30311074A515CC8400649086085
:1015300006480068FFF794FE002048E700200240BC
:1015400000100240AA5400084C0100204401002071
:1015500001480068704700004C01002000B5FFF70B
:10156000F7FF04494968C1F30221034A515CC840AE
:1015700000BD000000100240BA54000800B5FFF79B
:10158000E7FF04494968C1F3C221034A515CC840DE
:1015900000BD000000100240BA54000870B50021E0
:1015A0000022002400230020134D696801F00C057F
:1015B000F5B1042D02D0082D19D101E00F4819E032
:1015C0000F4DC1F38346AB5D01F4803555B10A4D33
:1015D0006D68C5F340450B4E725D084D5D43B5FB2C
:1015E000F2F402E0084D03FB05F4204602E000BFE0
:1015F000024800BF00BF70BD0010024000127A0018
:1016000098540008A854000800093D00F8B50446A5
:101610000CB90120F8BD207800F00100002878D036
:10162000F848406800F00C0004280CD0F5484068E9
:1016300000F00C00082811D1F248406800F4803016
:10164000B0F5803F0AD1EF48006800F40030002870
:101650005FD0606800285CD10120DBE700BF6068D4
:10166000B0F5803F06D1E748006840F48030E54996
:10167000086028E0606858B9E248006820F48030CB
:10168000E04908600846006820F4802008601AE0FD
:101690006068B0F5A02F0BD1DA48006840F48020D4
:1016A000D84908600846006840F4803008600AE0C5
:1016B000D448006820F48030D249086008460068A9
:1016C00020F48020086000BF606888B1FFF7A2FDA9
:1016D000054606E0FFF79EFD401B642801D9032064
:1016E00098E7C848006800F400300028F2D010E005
:1016F000FFF790FD054606E0FFF78CFD401B6428D0
:1017000001D9032086E7BF48006800F400300028B4
:10171000F2D1207800F00200022857D1B948406881
:1017200000F00C0050B1B748406800F00C000828E9
:1017300018D1B448406800F4803098B9B1480068C6
:1017400000F0020020B12069012801D0012061E7EA
:10175000AC48006820F0F800616940EAC100A9497E
:10176000086033E02069E8B10120A7490860FFF76D
:1017700051FD054606E0FFF74DFD401B022801D94B
:10178000032047E79F48006800F002000028F2D0DD
:101790009C48006820F0F800616940EAC10099495E
:1017A000086013E0002098490860FFF733FD054604
:1017B00006E0FFF72FFD401B022801D9032029E78F
:1017C0009048006800F002000028F2D1207800F074
:1017D000080008282DD1A069B8B101208B49086004
:1017E000FFF718FD054606E0FFF714FD401B022831
:1017F00001D903200EE78348406A00F00200002868
:10180000F2D0012001F0FCFE13E000207F490860C7
:10181000FFF700FD054606E0FFF7FCFC401B022831
:1018200001D90320F6E67748406A00F0020000285C
:10183000F2D1207800F00400042873D10027714809
:10184000C06900F0805070B900BF6E48C06940F0B8
:1018500080506C49C8610846C06900F08050009013
:1018600000BF00BF01276A48006800F48070B0B96B
:101870006748006840F4807065490860FFF7CAFC5B
:10188000054606E0FFF7C6FC401B642801D903208B
:10189000C0E65F48006800F480700028F2D000BF06
:1018A000E068012806D15748006A40F00100554918
:1018B000086227E0E06858B95248006A20F0010049
:1018C000504908620846006A20F00400086219E0E6
:1018D000E06805280BD14B48006A40F004004949F4
:1018E00008620846006A40F0010008620AE04548C4
:1018F000006A20F00100434908620846006A20F0AF
:101900000400086200BFE068A0B1FFF783FC054651
:1019100009E0FFF77FFC401B41F28831884202D981
:10192000032077E622E03748006A00F00200002832
:10193000EFD012E0FFF76EFC054608E0FFF76AFC07
:10194000401B41F28831884201D9032062E62D48CC
:10195000006A00F002000028F0D1012F05D12948CB
:10196000C06920F080502749C86100BFE069C8B352
:101970002448406800F00C00082860D0E069022884
:1019800048D1002020490866FFF744FC054606E0E0
:10199000FFF740FC401B022801D903203AE6194812
:1019A000006800F000700028F2D1206AB0F5803F96
:1019B00007D11448406820F40030A1680843114959
:1019C0004860D4E9080108430E49496821F47411BC
:1019D00008430C49486001200B490866FFF71AFCD0
:1019E000054607E03DE0FFF715FC401B022801D942
:1019F00003200FE60348006800F000700028F2D0D2
:101A00002FE00000001002400000424280044242E9
:101A100000700040002014490866FFF7FBFB0546F4
:101A200006E0FFF7F7FB401B022801D90320F1E590
:101A30000E48006800F000700028F2D111E0E06963
:101A4000012800D1E6E50948466806F48031206A9D
:101A5000814204D106F47011606A814201D00120F4
:101A6000D8E50020D6E50000000042420010024008
:101A700070B504462546681EB0F1807F01D3012071
:101A80000FE0681E4FF0E02148610F214FF0FF305A
:101A900002F040FC00204FF0E0218861072008613F
:101AA000002070BD7047704710B50346002200BF8C
:101AB00093F83C00012801D1022010BD012083F8D9
:101AC0003C0000BF22F0FF00CC6840EA040222F490
:101AD00040708C6840EA040222F480604C6840EA5E
:101AE000040222F400600C6840EA040222F48050F0
:101AF0000C6940EA040222F400504C6940EA0402F6
:101B000022F48040CC6940EA04021868426400BFB5
:101B1000002083F83C0000BF00BFCEE730B502468E
:101B20000B4600BF92F83C00012801D1022030BDD5
:101B3000012082F83C0000BF022082F83D001068BE
:101B400044681068816824F07004186804431068C1
:101B50004460104D1068A8420BD01068B0F1804F5F
:101B600007D00D4D1068A84203D00C4D1068A84254
:101B700005D121F08001586801431068816001207F
:101B800082F83D0000BF002082F83C0000BF00BF8B
:101B9000CDE70000002C0140000400400008004098
:101BA00010B504460CB9012010BD94F83D0028B9C9
:101BB000002084F83C00204600F026F8022084F83B
:101BC0003D00211D206802F0D9F8012084F846006C
:101BD00000BF84F83E0001213F20015540200155FF
:101BE0004120015500BF00BF012084F8420043207E
:101BF0000155442001554520015500BF012084F8BE
:101C00003D000020D0E7000010B586B0044600205B
:101C1000029003900490059064492068884216D190
:101C200000BF6348806940F40060614988610846EC
:101C3000806900F40060019000BF00BF0022012114
:101C40001920FFF76DFB1920FFF75AFBABE0206866
:101C5000B0F1804F39D100BF5548C06940F0010054
:101C60005349C8610846C06900F00100019000BFF7
:101C700000BF00BF0846806940F004008861084644
:101C8000806900F00400019000BF00BF4FF40040E5
:101C90000290002003900120049002A94548FFF71C
:101CA0001BF900BF4449486820F4407040F0E060F0
:101CB00040F48070486000BF002211461C20FFF7EE
:101CC0002FFB1C20FFF71CFB6DE03C49206888427D
:101CD00038D100BF3648C06940F002003449C861BD
:101CE0000846C06900F00200019000BF00BF00BFBD
:101CF0000846806940F0080088610846806900F065
:101D00000800019000BF00BF102002900020039047
:101D10000120049002A92A48FFF7DEF800BF2649F7
:101D2000486820F4406040F0E06040F400604860A3
:101D300000BF002202211D20FFF7F2FA1D20FFF74D
:101D4000DFFA30E01F49206888422CD100BF1848D4
:101D5000C06940F004001649C8610846C06900F037
:101D60000400019000BF00BF00BF0846806940F03A
:101D7000080088610846806900F00800019000BFF3
:101D800000BF40200290002003900120049002A98F
:101D90000B48FFF7A1F8002203211E20FFF7C0FA2D
:101DA0001E20FFF7ADFA06B010BD0000002C014068
:101DB0000010024000080140000001400004004003
:101DC000000C0140000800402DE9F04104460D469A
:101DD000002700BF94F83C00012802D10220BDE892
:101DE000F081012084F83C0000BF022084F83D000F
:101DF0002068866826F0770626F47F46206886608D
:101E00002868502833D00CDC202850D004DC00286F
:101E10004BD0102851D149E0302849D040284CD12E
:101E200039E060282DD0702807D0B0F5805F03D04E
:101E3000B0F5005F41D10DE041E0D5E902136A68D9
:101E4000206801F0EEFF2068866846F0770620687B
:101E5000866034E0D5E902136A68206801F0E1FF8A
:101E60002068806840F480402168886027E0EA6844
:101E70006968206802F0FFF85021206801F0DCFF5B
:101E80001DE0EA686968206802F03CF9602120687A
:101E900001F0D2FF13E0EA686968206802F0EBF80D
:101EA0004021206801F0C8FF09E000BF00BF00BF6B
:101EB0002968206801F0C0FF01E0012700BF00BFD2
:101EC000012084F83D0000BF002084F83C0000BFE2
:101ED000384684E770B504462068B0F1804F44D19D
:101EE00000206F49A1F84C00207F012834D1002147
:101EF0006C4800F051FC6A4988618869FEF78DFBE7
:101F0000054667490869FEF788FB06462946FEF73D
:101F1000B5F9634908620846006A63490860604988
:101F2000086AFEF7DCFB0546604A614BFEF7EAFBF8
:101F300001D800200EE05A49086AFEF7D0FB05469A
:101F40005C4A5D4BFEF7F6FB02D84FF07E5001E095
:101F50005348006A5249C861207F022805D10421F4
:101F6000504800F019FC4E490861544920688842E5
:101F700043D100214A48A0F8A410207F012833D182
:101F80004F4800F009FC46490867086FFEF745FB1B
:101F900006464349886EFEF740FB05463146FEF78C
:101FA0006DF93F4988670846806F464908603C499B
:101FB000886FFEF794FB05463C4A3D4BFEF7A2FBBB
:101FC00001D800200EE03649886FFEF788FB0546F1
:101FD000384A394BFEF7AEFB02D84FF07E5001E095
:101FE0002F48006A2E494867207F022805D1042126
:101FF000334800F0D1FB2A4988663349206888427B
:102000004DD100212648A0F8FC10207F01283CD1AA
:102010002E4800F0C1FB2249C1F8C800D1F8C80021
:10202000FEF7FBFA06461E49D1F8C000FEF7F5FAA6
:1020300005463146FEF722F91949C1F8D000084695
:10204000D0F8D000224908601549D1F8D000FEF739
:1020500046FB0546154A164BFEF754FB01D80020F7
:1020600010E00F49D1F8D000FEF739FB0546114AC0
:10207000114BFEF75FFB02D84FF07E5002E008489C
:10208000D0F8D0000649C1F8CC00207F022806D144
:1020900004210E4800F080FB0149C1F8C00070BD6A
:1020A000F0050020900700201C010020B81E85EBE1
:1020B00051B88E3FAE47E17A14AEEF3F00040040C6
:1020C000D807002020010020000800402008002040
:1020D000240100202DE9F04104460D461646002754
:1020E00000BF94F83C00012802D10220BDE8F08135
:1020F000012084F83C0000BF96B9EB68D5E90012D6
:10210000206801F0CBFF2068806920F00C00216876
:10211000886120688069A96808432168886141E076
:10212000042E13D1EB68D5E90012206801F0FEFF00
:102130002068806920F44060216888612068806997
:10214000A96840EA0120216888612BE0082E12D19D
:10215000EB68D5E90012206802F005F82068C06934
:1021600020F00C002168C8612068C069A968084394
:102170002168C86116E00C2E13D1EB68D5E9001276
:10218000206802F00CF82068C06920F440602168E3
:10219000C8612068C069A96840EA01202168C86157
:1021A00000E0012700BF002084F83C0000BF384653
:1021B0009CE710B504460CB9012010BD94F83D0011
:1021C00028B9002084F83C00204600F025F80220C1
:1021D00084F83D00211D206801F0D0FD012084F825
:1021E000460000BF84F83E0001213F2001554020F9
:1021F00001554120015500BF00BF012084F8420075
:1022000043200155442001554520015500BF0120C0
:1022100084F83D000020D0E7704700002DE9F0432E
:1022200004460D46002615B994F83E000BE0042D37
:1022300002D13F20005D06E0082D02D14020005D64
:1022400001E04120005D804615B994F842000BE0A2
:10225000042D02D14320005D06E0082D02D1442068
:10226000005D01E04520005D8146B8F1010F02D11B
:10227000B9F1010F02D00120BDE8F0831DB90220A1
:1022800084F83E000EE0042D03D102213F200155C9
:1022900008E0082D03D102214020015502E002216F
:1022A000412001551DB9022084F842000EE0042DA2
:1022B00003D102214320015508E0082D03D102215A
:1022C0004420015502E002214520015535B1042D7D
:1022D0000BD0082D10D00C2D1CD114E02068C06844
:1022E00040F002002168C86016E02068C06840F035
:1022F00004002168C8600FE02068C06840F0080052
:102300002168C86008E02068C06840F010002168BB
:10231000C86001E0012600BF00BF06BB01222946BC
:10232000206801F06DFD1249206888420BD02068BA
:10233000B0F1804F07D00F492068884203D00E4982
:10234000206888420CD12068806800F00707062FBB
:102350000CD02068006840F001002168086005E0AA
:102360002068006840F0010021680860304683E77B
:10237000002C0140000400400008004070B50446F5
:102380002068C5682068066906F00200022819D195
:1023900005F00200022815D1401F216808610120C4
:1023A00020772068806900F0030018B12046FFF70D
:1023B00091FD05E0204600F0C3F8204600F077F9D3
:1023C0000020207706F00400042819D105F004004D
:1023D000042815D1C04321680861022020772068B5
:1023E000806900F4407018B12046FFF773FD05E0E6
:1023F000204600F0A5F8204600F059F9002020778B
:1024000006F00800082819D105F00800082815D1A1
:10241000C04321680861042020772068C06900F06B
:10242000030018B12046FFF755FD05E0204600F0F7
:1024300087F8204600F03BF90020207706F01000D6
:10244000102819D105F01000102815D1C0432168BB
:102450000861082020772068C06900F4407018B136
:102460002046FFF737FD05E0204600F069F82046DA
:1024700000F01DF90020207706F0010048B105F0BA
:10248000010030B16FF0010021680861204600F0C2
:1024900079F906F08000802809D105F080008028B5
:1024A00005D1C043216808612046FFF7FBFA06F01A
:1024B0004000402809D105F04000402805D1C04324
:1024C00021680861204600F0B6F906F020002028B7
:1024D00009D105F02000202805D1C04321680861FA
:1024E0002046FFF7E0FA70BD10B586B00446002024
:1024F00002900390049005900E492068884217D1FD
:1025000000BF0D48806940F004000B49886108460F
:10251000806900F00400019000BF00BF4FF4E0604C
:10252000029002200390059002A90448FEF7D4FC13
:1025300006B010BD002C0140001002400008014010
:1025400070472DE9F04104460D461646002700BFAE
:1025500094F83C00012802D10220BDE8F08101205E
:1025600084F83C0000BF36B1042E1BD0082E31D0B9
:102570000C2E5ED145E02946206801F067FC2068FA
:10258000806940F00800216888612068806920F037
:1025900004002168886120688069296908432168EE
:1025A000886148E02946206801F080FC2068806945
:1025B00040F40060216888612068806920F48060B0
:1025C0002168886120688069296940EA01202168C2
:1025D000886130E02946206801F09CFC2068C069D1
:1025E00040F008002168C8612068C06920F004003C
:1025F0002168C8612068C069296908432168C861E9
:1026000019E02946206801F0B9FC2068C06940F44F
:1026100000602168C8612068C06920F4806021687A
:10262000C8612068C069296940EA01202168C86141
:1026300001E0012700BF00BF00BF002084F83C007C
:1026400000BF384689E710B504460CB9012010BD1B
:1026500094F83D0028B9002084F83C00204600F0A2
:1026600025F8022084F83D00211D206801F086FB3A
:10267000012084F8460000BF84F83E0001213F207D
:102680000155402001554120015500BF00BF0120E8
:1026900084F842004320015544200155452001554E
:1026A00000BF012084F83D000020D0E7704770474C
:1026B00070B504460D4615B994F83E000BE0042DA4
:1026C00002D13F20005D06E0082D02D14020005DD0
:1026D00001E04120005D012801D0012070BD1DB93D
:1026E000022084F83E000EE0042D03D102213F2099
:1026F000015508E0082D03D102214020015502E0D8
:1027000002214120015501222946206801F078FB71
:1027100019492068884201D1012000E0002028B139
:102720002068406C40F400402168486412492068E9
:1027300088420BD02068B0F1804F07D00F49206845
:10274000884203D00E49206888420CD120688068F6
:1027500000F00706062E0CD02068006840F001004B
:102760002168086005E02068006840F001002168E9
:1027700008600020B2E70000002C01400004004087
:102780000008004010B5044602494868FEF742FAC6
:1027900010BD0000F80600200246002031B10429D7
:1027A00007D0082908D00C290CD108E01368586B11
:1027B00009E01368986B06E01368D86B03E01368B0
:1027C000186C00E000BF00BF704770B504460D46AE
:1027D00000BF94F83C00012801D1022070BD012007
:1027E00084F83C0000BF022084F83D0029462046C2
:1027F00001F0E8FB48B1012084F83D0000BF002053
:1028000084F83C0000BF0120E8E72068C06820F0A1
:1028100040002168C8602068C06820F480402168BA
:10282000C860012084F83D0000BF002084F83C000F
:1028300000BF00BFD2E7704710B504460CB90120B5
:1028400010BDA06900B100E000BF94F8410028B9B4
:10285000002084F84000204600F02AF8242084F864
:1028600041002068C06820F400502168C8602046FC
:1028700001F0B4FC2068006920F4904021680861F0
:102880002068406920F02A00216848612068C068FB
:1028900040F400502168C86000206064202084F863
:1028A000410084F842000020606300BFC8E70000D8
:1028B00010B586B004460020029003900490059065
:1028C0001949206888422DD100BF1848C06940F4DA
:1028D00000301649C8610846C06900F40030019014
:1028E00000BF00BF00BF0846806940F00400886157
:1028F0000846806900F00400019000BF00BF04207A
:102900000290022003900320059002A90848FEF7D8
:10291000E3FA0820029000200390049002A90448E2
:10292000FEF7DAFA06B010BD004400400010024085
:102930000008014000BFFEE710B500224FF480718F
:102940000D48FEF761FC00224FF400710A48FEF7C3
:102950005BFC142002F0BAF8012211020648FEF7CF
:1029600053FC142002F0B2F800224FF480710248A8
:10297000FEF74AFC10BD0000000C014010B500221B
:102980004FF480710C48FEF73FFC012251020A48C7
:10299000FEF73AFC142002F099F8012211020648D1
:1029A000FEF732FC142002F091F800224FF48071FF
:1029B0000148FEF729FC10BD000C014070B505462A
:1029C000002400F053FE00261CE000224FF480712A
:1029D0001248FEF719FC142002F078F801221102C7
:1029E0000E48FEF711FC6006040E4FF400710B4810
:1029F000FEF702FC08B1601CC4B20A2002F066F8BF
:102A0000701CC6B2082EE0DB00F046FE15B9FFF7D9
:102A1000B5FF01E0FFF790FF204670BD000C0140BC
:102A200070B5044600224FF480711748FEF7ECFBA6
:102A3000002525E004F0800028B10122510212484F
:102A4000FEF7E2FB05E000224FF400710E48FEF7AE
:102A5000DBFB6006040E142002F038F8012211029C
:102A60000948FEF7D1FB142002F030F800224FF4A1
:102A700080710548FEF7C8FB142002F027F86D1C92
:102A8000082DD7D370BD0000000C014010B5012205
:102A900051020D48FEF7B8FB012211020A48FEF769
:102AA000B3FB142002F012F800224FF40071064824
:102AB000FEF7AAFB142002F009F800224FF48071FF
:102AC0000148FEF7A1FB10BD000C014010B500222B
:102AD0004FF480710C48FEF797FB00224FF4007111
:102AE0000948FEF791FB142001F0F0FF01221102CA
:102AF0000548FEF789FB012251020348FEF784FBDB
:102B0000142001F0E3FF10BD000C014010B50024BB
:102B100000F0ACFD012251021348FEF775FB0122C3
:102B200011021148FEF770FB0A2001F0CFFF0AE006
:102B3000601CC0B20446FA2805DD00F0ADFDFFF7C9
:102B4000C5FF012010BD4FF400710748FEF754FB8C
:102B50000028EDD100F0A0FD00224FF48071024862
:102B6000FEF752FB0020EDE7000C0140016000225F
:102B7000826070472DE9F04704460F460B4D294609
:102B80004FF07E50FDF742FB82463946FDF744FB8D
:102B900080462846A168FDF73FFB81464146FDF788
:102BA000E3FA0646A6603046BDE8F087CDCC4C3F40
:102BB0002DE9F04781460C46154600214846FDF7B1
:102BC000EDFD01D2002009E05A4801684846FDF7B2
:102BD000EFFD02D25748006800E0484681460021D8
:102BE0002046FDF7DBFD01D2002009E051480168D5
:102BF0002046FDF7DDFD02D24E48006800E0204689
:102C0000044600212846FDF7C9FD01D2002009E055
:102C1000484801682846FDF7CBFD02D245480068C8
:102C200000E028460546434801684846FDF726FB74
:102C300082460021FDF7B2FD01D2002012E03D489E
:102C400001684846FDF71AFB82464FF07E51FDF7BA
:102C5000AFFD02D24FF07E5004E03648016848468E
:102C6000FDF70CFB0646334801682046FDF706FBDE
:102C700082460021FDF792FD01D2002012E02D488E
:102C800001682046FDF7FAFA82464FF07E51FDF7C3
:102C90008FFD02D24FF07E5004E0264801682046A6
:102CA000FDF7ECFA0746234801682846FDF7E6FAE7
:102CB00082460021FDF772FD01D2002012E01D487E
:102CC00001682846FDF7DAFA82464FF07E51FDF79B
:102CD0006FFD02D24FF07E5004E01648016828468E
:102CE000FDF7CCFA80461448066014480760144883
:102CF000C0F8008013493846FDF78EFA8246FDF78A
:102D0000BBFC1149096848630E493046FDF784FA57
:102D10008246FDF7B1FC0C490968886309494046C1
:102D2000FDF77AFA8246FDF7A7FC07490968C863F0
:102D3000BDE8F08768000020880000208C0000209B
:102D40009000002000004845480700202DE9F34F7F
:102D500099B0884600211998FDF720FD04D2D14989
:102D60004046FDF701FA80461998FDF76CFCB0F17A
:102D7000000B01DB594601E0CBF100010846FDF7ED
:102D800043FC199000F04EFDC7494046FDF7ECF9B1
:102D9000834601F009FE8046C4494046FDF76EFABD
:102DA0008346FDF79CFCCDE9100101F095FE002261
:102DB000BF4BCDE91201FDF79FFACDE91401FDF7F4
:102DC0006FFCBC490860BC480068FDF788FCCDE991
:102DD00012011998FDF783FCCDE90E01B548006892
:102DE000FDF712FCB1490690FDF716FA83464146FD
:102DF000FDF70CFA0790FDF772FCCDE9080102F02F
:102E0000D5FA4FF06042AD4BCDE90A01FDF71BFB4F
:102E1000CDE90C01DDE90E23FDF715FBCDE910012D
:102E2000DDE91223FDF781FBCDE91401FDF79AFCE2
:102E30000746A1480068FDF752FCCDE91201199838
:102E4000FDF74DFCCDE90E019A480068FDF7EAFB5D
:102E50000022974BCDE90001FDF7EFFA4FF08042D9
:102E6000974BCDE90201FDF7EEFACDE906014046A8
:102E7000FDF735FCCDE90401DDE90623FDF7DDFAB8
:102E8000CDE9080102F092FA4FF060428B4BCDE998
:102E90000A01FDF7D8FACDE90C01DDE90E23FDF7B3
:102EA000D2FACDE91001DDE91223FDF73EFBCDE9B1
:102EB0001401FDF757FC814639464FF07E50FDF76F
:102EC000A5F983464946FDF7A1F98246794800688D
:102ED00007287DD2DFE800F0C60424446486A600FB
:102EE0004FF080415046FDF7C9F9834649463846C0
:102EF000FDF73AF959461590FDF736F904464FF0BB
:102F000080415046FDF7BAF983464946FDF72CF952
:102F100005464FF080415046FDF7B0F90646A5E062
:102F20004FF080415046FDF7A9F983463946FDF739
:102F30001BF904464FF080415046FDF79FF9834648
:102F400049463846FDF710F959461590FDF70CF93A
:102F500005464FF080415046FDF790F9064685E062
:102F60004FF080415046FDF789F904464FF080410B
:102F70005046FDF783F9834649463846FDF7F4F895
:102F800059461590FDF7F0F805464FF08041504640
:102F9000FDF774F983464946FDF7E6F8064665E015
:102FA0004FF080415046FDF769F904464FF08041EB
:102FB0005046FDF763F983463946FDF7D5F80546D7
:102FC0004FF080415046FDF759F98346494600E0ED
:102FD00048E03846FDF7C8F859461590FDF7C4F8A3
:102FE000064643E04FF080415046FDF747F98346DF
:102FF0004946FDF7B9F804464FF080415046FDF7C9
:103000003DF905464FF080415046FDF737F98346BC
:1030100049463846FDF7A8F859461590FDF7A4F83B
:10302000064623E04FF080415046FDF727F98346DE
:1030300049463846FDF798F859461590FDF794F83B
:1030400004464FF080415046FDF718F905464FF011
:1030500080415046FDF712F983463946FDF784F862
:10306000064603E000240025002600BF00BF1248EA
:1030700001682046FDF7D0F818900F4801682846EF
:10308000FDF7CAF817900C4801683046FDF7C4F800
:103090001690DDE916211898FFF78AFD1BB0BDE8F0
:1030A000F08F0000DB0F4940DB0FC93F920A863FDB
:1030B0000000F03FA8000020680000207AB6FB3F27
:1030C00052C1F03F00B585B00020019002900390FE
:1030D000049000BF2948806940F0040027498861B6
:1030E0000846806900F00400009000BF00BF00BFE8
:1030F0000846806940F0080088610846806900F051
:103100000800009000BF00BF012248F220311C4897
:10311000FEF77AF8012211031A48FEF775F848F213
:10312000203001900120029003900220049001A918
:103130001348FDF7D1FE4FF400600190002002908B
:10314000039001A90F48FDF7C7FE4FF4805001908E
:103150000120029003900220049001A90948FDF784
:10316000BBFE80200190002002900120039001A965
:103170000348FDF7B1FE05B000BD0000001002409D
:10318000000C01400008014000B595B000201190EE
:103190001290139014900F9010901C2108A8FCF727
:1031A000D8FF20216846FCF7D4FF34483449086032
:1031B0000020486000213248816040F67F41C160B4
:1031C000002101611321416180218161FEF7E8FC4A
:1031D00008B1FDF752FD4FF48050119011A9284815
:1031E000FEF7F2FD08B1FDF748FD2548FFF72BFA81
:1031F00008B1FDF742FD00200F9010900FA9204864
:10320000FEF78CFC08B1FDF738FD60200890002027
:1032100009900A900B900C900D900E90002208A936
:103220001748FFF78EF908B1FDF727FD042208A91A
:103230001348FFF786F908B1FDF71FFD082208A91A
:103240000F48FFF77EF908B1FDF717FD0020009049
:1032500001900290039004904FF4005005900020DC
:10326000079069460648FEF71FFC08B1FDF705FD0B
:103270000348FFF739F915B000BD0000002C0140EC
:103280004807002000B58FB000200B900C900D90E7
:103290000E90142106A8FCF75CFF00200490059016
:1032A00000900190029003904FF080402C490860FC
:1032B0000020486000212A4881604FF6FF71C160FC
:1032C0000021016180218161FEF76AFC08B1FDF7F0
:1032D000D4FC4FF480500B900BA92148FEF774FDED
:1032E00008B1FDF7CAFC1E48FEF763FF08B1FDF701
:1032F000C4FC0420069050200790002008900A90FB
:1033000006A91748FFF761FA08B1FDF7B6FC0020DF
:103310000490059004A91248FEF700FC08B1FDF7DF
:10332000ACFC0020009001200190002002900820B9
:103330000390002269460A48FEF7CCFE08B1FDF76B
:103340009CFC02200090019000200390042269461A
:103350000348FEF7BFFE08B1FDF78FFC0FB000BDBC
:103360009007002000B58FB000200B900C900D90BE
:103370000E90142106A8FCF7ECFE002004900590A6
:1033800000900190029003902C482D490860002085
:10339000486000212A4881604FF6FF71C16000211A
:1033A00001618161FEF7FCFB08B1FDF766FC4FF49B
:1033B00080500B900BA92248FEF706FD08B1FDF7DF
:1033C0005CFC1F48FEF7F5FE08B1FDF756FC042033
:1033D000069050200790002008900A9006A91848EF
:1033E000FFF7F3F908B1FDF748FC002004900590C1
:1033F00004A91348FEF792FB08B1FDF73EFC00203C
:1034000000900120019000200290082003900022EB
:1034100069460B48FEF75EFE08B1FDF72EFC022060
:103420000090019000200390042269460448FEF7B2
:1034300051FE08B1FDF721FC0FB000BD00040040B3
:10344000D807002000B58FB000200B900C900D9095
:103450000E90142106A8FCF77CFE00200490059035
:1034600000900190029003902C482D4908600020A4
:10347000486000212A4881604FF6FF71C160002139
:1034800001618161FEF78CFB08B1FDF7F6FB4FF49B
:1034900080500B900BA92248FEF796FC08B1FDF76F
:1034A000ECFB1F48FEF785FE08B1FDF7E6FB0420A4
:1034B000069050200790002008900A9006A918480E
:1034C000FFF783F908B1FDF7D8FB002004900590C1
:1034D00004A91348FEF722FB08B1FDF7CEFB00203C
:1034E000009001200190002002900820039000220B
:1034F00069460B48FEF7EEFD08B1FDF7BEFB022062
:103500000090019000200390042269460448FEF7D1
:10351000E1FD08B1FDF7B1FB0FB000BD00080040B0
:103520002008002010B50B480B4908604FF4E1302B
:103530004860002108488160C16001610C2141613F
:1035400000218161C161FFF777F908B1FDF795FBB3
:1035500010BD0000004400406808002000BFFEE7E6
:1035600000BFFEE770B5DDE904450160426083609D
:1035700004614561002646628662C66270BD2DE91F
:10358000F04704460D46E560E168E069FCF7ECFDB4
:10359000E061616AE068FCF739FE2062216AA06898
:1035A000FCF73AFE8046E1696068FCF735FE81462B
:1035B000E1682068FCF730FE82464946FCF7D4FDFE
:1035C00007464146FCF7D0FD0646E0686062606948
:1035D00080F0004731463846FDF7EAF803D26069CB
:1035E00080F0004007E030466169FDF7E1F801D264
:1035F000606900E030466063606BBDE8F08770474B
:1036000008B508490968C9084FF47A72B1FBF2F1AC
:103610004143009100BF00BF00994A1E009200295B
:10362000F9D108BD4C0100202DE9F04101F022FB49
:1036300006460B4909680B4A126801FB02F0FCF7C9
:10364000E3FF07463146FCF7E7FD054606480168FB
:103650002846FCF7DBFD044601F0A6F9BDE8F08141
:1036600074000020700000206C0000201FB50020B6
:1036700000900190029003904FF4007000900020A1
:10368000019002900220039069460248FDF724FC55
:103690001FBD0000000C01401FB5002000900190EC
:1036A000029003904FF400700090012001900020E0
:1036B00002900220039069460148FDF70DFC1FBDF2
:1036C000000C014030B503460C461546002207E0C9
:1036D000184600F008F824F812009B1C501C82B217
:1036E000AA42F5DB30BD0146088870472DE9F05F3E
:1036F00080468A461746B8F1006F02D33A488045A3
:1037000001D3BDE8F09FFDF7CFFBA8F1006B4FEAB6
:103710009B25CBF34809C9F50074A74200DC3C4661
:103720005CE04FF0006101EB85208A142F49FFF720
:10373000C9FF00260BE009EB06002C4931F8100008
:103740004FF6FF71884200D003E0701C86B2A6429B
:10375000F1DB00BFA64225DA4FF0006101EB8520C6
:10376000FDF718FB4CF25030FDF7DCFA20480069F9
:1037700020F002001E490861002608E03AF8160011
:1037800006EB0901194A22F81100701C86B2A64204
:10379000F4DB4FF0006101EB85208A14134900F03F
:1037A00029F808E04CF25030FDF7BCFA22465146A9
:1037B000404600F01FF8A74200D110E06D1C4FF00A
:1037C00000090AEB440A08EB4408381B87B2B7F536
:1037D000007F02DD4FF4007400E03C46A1E700BF2B
:1037E000FDF700FB00BF8CE700000108F00100209E
:1037F000002002402DE9F04104460E461746002500
:103800000AE036F815C06246002321460120FDF784
:10381000F3FAA41C681C85B2BD42F2DBBDE8F0815E
:103820007047000070B501F02BFA0546FCF79AFFCF
:10383000144908601448016812480068FCF7E6FC67
:10384000044600212046FCF7B3FF01D2204601E0E8
:1038500084F0004005460D49FCF7AAFF0DD2002177
:103860002046FCF7A5FF02D24FF0FF3000E0012018
:103870000749096808440649086002480068024987
:10388000086070BD64000020140000207CD9A040B6
:103890003000002010B5FDF7C3FC00F001F810BDAA
:1038A0002DE9F041FD480068401CFC490860FC48D7
:1038B00001680068401CFA4A106041F27070814251
:1038C0000BDBF8480078012807D141F270701146EF
:1038D00008600120F44981F83000F448B0F84C1039
:1038E000B0F84C00401CF14AA2F84C000A2911DB48
:1038F0000A201146A1F84C004FF40041EC48FDF7B6
:103900007BFC0446FCF789FEE849C8610846C069AB
:10391000E8490860E548B0F8A410B0F8A400401CDD
:1039200082B2E248A0F8A4200A290FDB0A21A0F8FD
:10393000A4101021E048FDF75FFC0446FCF76DFE83
:10394000DA4948670846406FDC490860D748B0F854
:10395000FC10B0F8FC00401C82B2D448A0F8FC2057
:103960000A2911DB0A21A0F8FC104021D248FDF7FA
:1039700043FC0446FCF751FECC49C1F8CC00084694
:10398000D0F8CC00CE490860002461E104EB44018A
:1039900001EBC401C54A02EBC101C8690021FCF773
:1039A000FDFE28D124B1012C0DD0022C21D115E02F
:1039B0004FF07E5004EB440101EBC401BB4A02EB23
:1039C000C101886316E04FF07E5004EB440101EB27
:1039D000C401B64A02EBC10188630BE04FF07E5090
:1039E00004EB440101EBC401B04A02EBC10188635E
:1039F00000E000BF66E004EB440101EBC401AB4A08
:103A000002EBC101C8694FF07E51FCF7C7FE25D11A
:103A100024B1012C0CD0022C1ED113E0002004EBA9
:103A2000440101EBC401A14A02EBC101886314E027
:103A3000002004EB440101EBC4019C4A02EBC101EC
:103A400088630AE0002004EB440101EBC401974ABB
:103A500002EBC101886300E000BF33E014B1022C27
:103A60002ED118E08F480078032813D104EB4400CE
:103A700000EBC4008D4A02EBC000C1694FF07E50DC
:103A8000FCF7C4FB04EB440101EBC401874A02EBE1
:103A9000C101886315E004EB440000EBC400834AD5
:103AA00002EBC000C1694FF07E50FCF7AFFB04EBA6
:103AB000440101EBC4017D4A02EBC101886300E0CF
:103AC00000BF00BF04EB440202EBC402774B03EBE0
:103AD000C202516C04EB440202EBC40203EBC202CB
:103AE000906BFCF765FE08D204EB440000EBC400C9
:103AF0006E4901EBC000406C22E004EB440202EB93
:103B0000C4026A4B03EBC202916C04EB440202EB69
:103B1000C40203EBC202906BFCF740FE08D204EB38
:103B2000440000EBC400614901EBC000806C07E079
:103B300004EB440000EBC4005C4901EBC000806B67
:103B400004EB440101EBC401584A02EBC101486394
:103B500004EB440202EBC402544B03EBC202116CAF
:103B600004EB440202EBC40203EBC202506BFCF70D
:103B70004DFB0746FCF7B3FD21F000410546514AD5
:103B8000514BFCF7BFFD47D204EB440000EBC400EF
:103B9000464901EBC000B0F8501004EB440000EBC4
:103BA000C400424A02EBC000B0F85000401C04EBD5
:103BB000440202EBC4023D4B03EBC202A2F85000E8
:103BC00004EB440000EBC4001A4602EBC000B0F85E
:103BD0004E0081422ADB04EB440000EBC400114696
:103BE00001EBC000406B04EB440101EBC40102EBAC
:103BF000C101086304EB440000EBC400114601EB73
:103C0000C000B0F84E0004EB440101EBC40102EB2C
:103C1000C101A1F8500009E0002004EB440101EBD0
:103C2000C401224A02EBC101A1F8500004EB440098
:103C300000EBC4001D4901EBC000406B04EB4401E4
:103C400001EBC401194A02EBC1010864601CC4B253
:103C5000032CFFF69BAE1548006B1C490860134807
:103C6000D0F888001A4908601048D0F8E0001949D7
:103C700008600D4890F84C0001280DD10A48007DDD
:103C8000401C094908750846007D192804DB0220FC
:103C900081F84C0000200875BDE8F081EC000020A0
:103CA000F400002008010020F8060020F0050020A4
:103CB0000008014034010020000C014038010020C0
:103CC0003C0100207B14AE47E17A743F28010020BC
:103CD0002C0100203001002000B58FB0282105A85C
:103CE000FCF737FA14216846FCF733FA02200590F6
:103CF0000120099010200A9002200C9000210D91C3
:103D00004FF460110E9105A8FDF780FC08B1FCF797
:103D1000B4FF0F20009002200190002002904FF489
:103D2000806003900020049002216846FDF74AFB62
:103D300008B1FCF7A2FF0FB000BD704710B50248F4
:103D4000FEF71CFB10BD00004807002010B502481C
:103D5000FEF714FB10BD00009007002010B50248CC
:103D6000FEF70CFB10BD0000D807002010B502487C
:103D7000FEF704FB10BD00002008002010B502680B
:103D80001C4B984208D0B0F1804F05D01A4B984296
:103D900002D01A4B984203D122F070024B681A43AA
:103DA000144B984208D0B0F1804F05D0124B984286
:103DB00002D0124B984203D122F44072CB681A43CE
:103DC00022F080034C6943EA040202608B68C362FC
:103DD0000B688362074B984201D10B69036301238F
:103DE0004361036903F001031BB1036923F001037D
:103DF000036110BD002C0140000400400008004099
:103E000030B501F01F05012404FA05F3046A9C4350
:103E10000462046A01F01F0502FA05F52C430462EE
:103E200030BD30B50C46816821F47F4142EA03255C
:103E300025432943816030BD0A46816821F0700125
:103E400042F00703194381607047000030B5026AF1
:103E5000056A25F0010505624368846924F0700451
:103E600024F003040D682C4322F002028D682A43DB
:103E70000D4DA84206D100BF22F00802CD682A43AA
:103E800022F00402084DA84207D123F4807323F4E2
:103E900000734D692B438D692B43436084614D68EA
:103EA0004563026230BD0000002C014030B5026A5B
:103EB000056A25F0100505624368846924F4E0442E
:103EC00024F440740D6844EA052422F020028D6831
:103ED00042EA05120E4DA84207D100BF22F080022F
:103EE000CD6842EA051222F04002094DA84209D1EC
:103EF00023F4806323F400634D6943EA85038D69ED
:103F000043EA8503436084614D688563026230BD86
:103F1000002C014030B5026A056A25F480750562FF
:103F20004368C46924F0700424F003040D682C4332
:103F300022F400728D6842EA05220F4DA84207D193
:103F400000BF22F40062CD6842EA052222F48062BA
:103F5000094DA84209D123F4805323F400534D693D
:103F600043EA05138D6943EA05134360C4614D6854
:103F7000C563026230BD0000002C014030B5036A09
:103F8000056A25F4805505624468C26922F4E0425E
:103F900022F440720D6842EA052223F400538D6832
:103FA00043EA0533064DA84204D124F480444D6908
:103FB00044EA85144460C2614D680564036230BD03
:103FC000002C01402DE9F04705460C464FF0000952
:103FD0002868866826F070066068064326F00706A3
:103FE0002068064328688660606800F00F01002999
:103FF0003BD10011082838D2DFE800F033343536E1
:104000000B272D04D4E90313A2682868FFF709FFE2
:104010002EE02068052802D10120BDE8F08728683D
:10402000D0F820802868006A20F001002968086222
:104030002868876927F0F007206947EA0017286891
:1040400087612868C0F8208012E02269A16828688A
:1040500000F011F80CE02269A168286800F052F81D
:1040600006E000BF00BF00BF02E04FF0010900BF43
:1040700000BF4846D1E730B50B461446026A056AD0
:1040800025F001050562816921F0F00141EA041182
:1040900022F00A021A438161026230BD70B50C46FB
:1040A0001546026A066A26F0010606628169124E0A
:1040B000B04208D0B0F1804F05D0104EB04202D0CF
:1040C0000F4EB04201D1012600E000261EB121F0C2
:1040D0000301294301E041F0010121F0F001F02644
:1040E00006EA0316314322F00A0204F00A063243BC
:1040F0008161026270BD0000002C0140000400409C
:104100000008004030B50B461446026A056A25F0E7
:1041100010050562816921F4704141EA043122F001
:10412000A00242EA03128161026230BD70B50C4602
:104130001546026A066A26F010060662816921F4B5
:10414000407141EA052121F470414FF4704606EABE
:104150000336314322F0A002A02606EA04163243B9
:104160008161026270BD70B50C461546026A066A2E
:1041700026F480760662C16921F00301294321F00B
:10418000F001F02606EA0316314322F400724FF4E0
:10419000007606EA04263243C161026270BD70B542
:1041A0000C461546026A066A26F480560662C16904
:1041B00021F4407141EA052121F470414FF4704629
:1041C00006EA0336314322F400524FF4005606EA61
:1041D00004363243C161026270BD000070B504460E
:1041E0002168096921F44051E26811432268116194
:1041F0002269A1681143626941EA02052168C96820
:1042000041F20C62914329432268D16021684969D7
:1042100021F44071A2691143226851612D4A21683D
:10422000914202D1FDF7AAF901E0FDF797F900EB01
:10423000C00101EB001162689200B1FBF2F100EBEA
:10424000C00202EB001263689B00B2FBF3F264232E
:10425000B2FBF3F202EBC20303EB0212A1EB820109
:10426000322202EB01116422B1FBF2F101F0F00104
:1042700000EBC00202EB001263689B00B2FBF3F29A
:104280006423B2FBF3F201EB021200EBC00101EB7D
:10429000001163689B00B1FBF3F100EBC00303EB7B
:1042A00000136668B600B3FBF6F36426B3FBF6F3BF
:1042B00003EBC30606EB0313A1EB8301322303EBED
:1042C00001116423B1FBF3F101F00F0111442268E5
:1042D000916070BD0038014000BFFEE7490050EA20
:1042E000C12018BF04204A0D18BF40F0010040F261
:1042F000FF72B2EB515F08BF40F00200012808BF17
:104300000520704702480068C0F302207047000093
:104310000CED00E010B5002804DB0A07130E054A77
:10432000135406E00A07140E034A00F00F031B1F84
:10433000D45410BD00E400E018ED00E02DE9F74F83
:10434000144694B00021C4E902111599079121F097
:104350000045C9498D4206DC1599C4E9000117B032
:104360000020BDE8F08FC549DFF814A3A9423CDD69
:104370000799C44E0029C44FC44A1599534619DD04
:10438000FCF75BF8554506D0C14AC24BFCF755F81F
:10439000C4E900010AE04FF0D352BE4BFCF74DF8E0
:1043A00032463B46FCF749F8C4E9000117B001204A
:1043B000BDE8F08FFBF7A0FF554506D0B44AB54BDA
:1043C000FBF79AFFC4E900010AE04FF0D352B14B6A
:1043D000FBF792FF32463B46FBF78EFFC4E9000134
:1043E00017B04FF0FF30BDE8F08FAB49A9421599E7
:1043F00078DB21F0004183468846A84AA84BFCF7A9
:1044000022F80022A74BFBF777FFFCF749F9099048
:10441000FCF708F906460F469C4A5346FCF713F88A
:1044200043465A46FCF70CF880468A46984A994B10
:1044300030463946FCF707F82A0D01250B92424613
:104440005346FBF7FDFF032DC4E9000139D00B985B
:10445000C1F30A51401A05EB45111139814230DA96
:104460009148C346784400EB0510CDF80CA00C90A1
:10447000D0E9002330463946FBF7E5FF02460B46FC
:104480000491069058460399FBF7D7FF80468A4669
:1044900002460B4658460399FBF7CFFF049B069A4A
:1044A000FBF7CBFF83460C9803913946D0E90223F2
:1044B0003046FBF7C8FF5A46039BFBF7BEFF6D1C57
:1044C000BDE707980028A2BF099817B0BDE8F08F94
:1044D000616881F000416160099817B04042BDE811
:1044E000F08FFFE784461598C1F31301C0F30A501B
:1044F000A0F2F5304FEA601800F01F06C6F1200068
:10450000139000200690079041F4801E05206D4610
:1045100076B1664A08EB00017A4452F8213002EB8A
:104520008101B3404A68139922FA01F1194305E069
:104530005F4908EB0002794451F82210A1FB0E27D5
:10454000A1FB0C131A449A4234BF0123002303EB4E
:10455000070A05EB8003D3E901B70F448F4234BF4C
:104560000121002193448B4411B1934502D903E00A
:10457000934501D2012100E00021C3E901B7514474
:1045800045F82010011EA0F10100C1DC0298059F32
:1045900000F10050800F12900298DDE90356800070
:1045A000FCF740F8834628460D91FCF77EFA6FF041
:1045B0001D02FCF763FACDE90E013046FCF775FAEF
:1045C0006FF03D02FCF75AFA80468A463846FCF7FF
:1045D0006CFA6FF05D02FCF751FA0746424653460B
:1045E0001191FBF789FEDDE90E23FBF785FE5A46A4
:1045F0000D9BFBF781FE00250E465A4628460D9B73
:10460000FBF71BFFDDE90E23FBF717FF424653467E
:10461000FBF713FF3A46119BFBF712FFDFF898A058
:10462000244A5346FBF70FFF07468846234A244B8C
:1046300031462846FBF707FF3A464346FBF75CFE48
:10464000074688464FF0A842534631462846FBF7B6
:10465000FAFE3A464346FBF74FFE159A12F0004F1A
:1046600004D0129A81F0004152421292C4E9000132
:10467000129817B0BDE8F08FFB21E93F7CD90240CA
:10468000FB21F93F7370032E8A19A33B00004054AD
:104690003163621A61B4D03DFB21394183C8C96DD1
:1046A000305FE43F0000E03F901000000C1000007D
:1046B000EE0F0000182D4454FB21F93D3326A611BE
:1046C000460B113C2DE9FF4D21F0004807460C46F2
:1046D000B8F1795F08DAFBF7E3FF002801BF00209B
:1046E000324904B0BDE8F08D3A46234610461946DB
:1046F000FBF7A9FE054602462D480E460B4606214D
:10470000784400F05DF82A463346FBF79CFEDDE96D
:10471000022382468B4638462146FBF794FE044628
:104720000F4652465B4628463146FBF78CFE224632
:104730003B46FBF782FE07468A464FF0FF3228468B
:104740003146FCF79BF91B4A90450ADA3A46534634
:10475000FBF773FE04B00022BDE8F04D134BFBF7EE
:104760006FBE154A4245A8BFA8F500154FF00004DA
:10477000B8BF124D22462B46FBF75FFE0646884621
:1047800022462B4600200949FBF757FE04460D46FA
:104790003A46534630464146FBF74FFE04B02246A8
:1047A0002B46BDE8F04DFBF74BBE00000000F03F8C
:1047B000C40D00003333D33F0000E93F0000D23F77
:1047C0002DE9F0414F1E00EBC7010446D1E900017D
:1047D00015461E4637F006020DD02A463346FBF733
:1047E00032FE7F1E04EBC703D3E90023FBF784FDF1
:1047F00037F00602F1D1022F25D0042F13D0062F57
:1048000018BFBDE8F0812A463346FBF71CFED4E909
:104810000A23FBF771FD2A463346FBF714FED4E961
:104820000823FBF769FD2A463346FBF70CFED4E963
:104830000623FBF761FD2A463346FBF704FED4E965
:104840000423FBF759FD2A463346FBF7FCFDD4E968
:104850000223FBF751FD2A463346FBF7F4FDD4E96A
:104860000023BDE8F041FBF747BD00002DE9FF4DF7
:10487000054621F0004084B00C46B0F1795F0BDAB8
:104880002846FFF72BFD042808BF00F06FF82846E4
:1048900008B02146BDE8F08D2A460B461046FBF7CE
:1048A000D2FD06460F462A462346FBF7CCFD80463E
:1048B00026488A4632463B4605217844FFF780FF6A
:1048C00083461098029160B3214A224B40465146DC
:1048D000FBF7B9FDCDE900015A4640465146029B1F
:1048E000FBF7B1FD82468846DDE906014FF0FF3255
:1048F000FCF7C4F852464346FBF79FFD32463B4661
:10490000FBF7A1FDDDE90623FBF797FDDDE90023B9
:10491000FBF793FD08B02A462346BDE8F04DFBF7B0
:104920008FBD0B465A4630463946FBF78CFD084A88
:10493000084BFBF7E1FC42465346FBF784FD08B009
:104940002A462346BDE8F04DFBF7D6BC020D000019
:10495000495555555555C5BF0122FCF78FB8002262
:10496000134610461146FBF7E0BD0000024A002046
:104970001107FCF783B8000001FDFFFF02E008C843
:10498000121F08C1002AFAD170477047002001E0C9
:1049900001C1121F002AFBD17047000001490860C5
:1049A00070470000500100202DE9F04704462046E2
:1049B000FBF795FE07464FF0C0420A4B00F0FAF8AD
:1049C0000546FBF7CFFE814600214846FBF7F0FE87
:1049D00002D84846BDE8F08703494846FBF7C4FBC8
:1049E000F8E70000FB211940DB0FC94070B5FEF766
:1049F0004DF86C20FEF714F8FEF788F80C20FEF74F
:104A00000FF8FEF783F8FEF741F86D20FEF708F87F
:104A1000FEF77CF80120FDF7D1FF04460020FDF7EA
:104A2000CDFF0546FEF752F805EB042080B270BDBD
:104A300000B5244B21F0004287B09A42DCBF00222F
:104A4000134629DD204B9A4208D140B94FF00100AE
:104A5000FFF7A4FFFFF783FF07B000BD03DBFFF7FD
:104A60007BFF07B000BD02AAFFF768FC10F003014E
:104A700004BF0DF1080C9CE80F000DD001200129A6
:104A80000ED0022914D00DF1080C00909CE80F0004
:104A9000FFF7ECFE07B000BDFFF714FE07B000BD46
:104AA0000DF1080C00909CE80F00FFF7DFFE05E019
:104AB0000DF1080C9CE80F00FFF704FE07B081F031
:104AC000004100BDFB21E93F0000F07F00BF010075
:104AD000A0F10100FBD170472DE9F041C1F30A526A
:104AE000A2F2FF362F4A304B0D460446142E2FDA21
:104AF000002E12DAFBF700FC00221346FBF71AFE29
:104B00004CD2002DA4BF0024254647DA25F00040F2
:104B1000204318BF254D41D018E0DFF894C02CFA8F
:104B200006F705EA070C5CEA040C08BFBDE8F08153
:104B3000FBF7E2FB00221346FBF7FCFD2ED2002D13
:104B400003DA4FF48010F0400544BD43002425E013
:104B5000332EC8BFBDE8F081A6F1140C4FF0FF372B
:104B600027FA0CF73C4208BFBDE8F081FBF768FC70
:104B700000221346FBF7DEFD10D2002D0DDA142EB5
:104B800008BF6D1C09D0C6F13400012101FA00F004
:104B90002044A04238BF6D1C0446BC432946204631
:104BA000BDE8F0819C7500883CE4377E0000F0BFD2
:104BB000FFFF0F0070B514461D460E46002814BFB7
:104BC00001210021314321F00041C1F17F6101F158
:104BD000E041C90F16D1002C14BF01210021294347
:104BE00021F00041C1F17F6101F1E041C90F09D11C
:104BF0001449B1EB460F08BF00281CD0690008BF5C
:104C0000002C18D03146FBF7E3FE024640F2FF705D
:104C100030EA11500DD0F017B0EBE17F09D0084613
:104C200065F31E0084460B4620466146FBF708FCF0
:104C30000246104670BD0120FFF7B0FEBDE870408F
:104C4000FFF78DBE0000E0FF70B507480068FBF776
:104C5000DBFC05460549FBF7DFFA0446044801681A
:104C60002046FBF781FA70BD30000020DB0FC94001
:104C70001400002001480068704700001400002064
:104C800070B5FFF7B3FE0949088008460088FBF7B6
:104C9000C4FC06464FF08B41FBF7F0FA0546044989
:104CA000FBF7BAFA0446FBF71AFD70BD440000207A
:104CB000DB0FC9402DE9F041224801682248006815
:104CC000FBF7A4FA064621490968214A1268881AA6
:104CD000FBF79AFC07461F49FBF79EFA054631464B
:104CE000FBF742FA1C4908601C4909681C4A126813
:104CF000881AFBF792FC05461A49FBF7BFFA0446EF
:104D00002046FBF7ECFC0546174A184BFBF7FAFC6C
:104D100000D8174C214610480068FBF7AFFA154938
:104D200008600948006807490860084800680849A1
:104D300008600A4800680A4908600E480068BDE833
:104D4000F08100002000002014000020300000202E
:104D500034000020DB0FC94040000020EC000020A0
:104D6000F000002000007A44FCA9F1D24D62503FCF
:104D70006F12833A3C0000201CB5FCF75DFAFEF789
:104D8000ABFFFEF79FF9FEF7FFF9FEF77BFAFEF7A0
:104D900059FBFEF7E7FAFEF7C5FB01221103DA48DB
:104DA000FCF732FA01222021D848FCF72DFA012223
:104DB000D103D648FCF728FAD548D6498863D648A7
:104DC000C8630021D548FDF773FC0421D348FDF7E3
:104DD0006FFC0821D148FDF76BFC0020CF49096822
:104DE0004863CE4909688863CC490968C863CC48E0
:104DF000CC490860CC480168CC480068FBF7CEFE7F
:104E0000C448C06B00210B46C94ACDE90010C9490E
:104E1000C948FEF7A7FBBF48806B00210B460A4636
:104E2000CDE90010BA49C548FEF79CFB0020B949FE
:104E30008864486401F1440402222146C048FEF718
:104E400041FC20884FF6FF71884208D10020B1490B
:104E5000486402224431BA48FEF748FC0DE0AD49EF
:104E6000486CB849FBF7A4FC07D20020A949486464
:104E700002224431B248FEF739FCA648406CA549ED
:104E80008864FEF7CFFCFFF7DFFE0646AE49FBF76E
:104E9000C3F905469F48416C2846FBF7B7F99D4981
:104EA00008600520A949A1F84E004FF4FA61A7480F
:104EB000A0F8A610A0F8FE104FF07E50A349486459
:104EC0000146A248C0F89C10C0F8F41000209F4989
:104ED000886400219D48C0F8A010C0F8F8104FF079
:104EE0007E508C494862002081F830009848006864
:104EF00098490860012098490870864981F84D005A
:104F000096499748FDF732FE00219648FDF786F94D
:104F100004219448FDF782F900219348FDF77EF9BA
:104F200004219148FDF77AF900219048FDF776F9C0
:104F300004218E48FDF772F9E5E080217348FCF703
:104F40005BF98B4908600846006801280FD10220F0
:104F500081490870002281036C48FCF755F9002054
:104F60006C4981F84D00012081F83100C6E0012232
:104F7000D1036648FCF748F97448D0F8E000654969
:104F80000862084690F83100002847D0086A4FF0C0
:104F90007E51FBF703FC03D076480068012819D145
:104FA000FEF740FCFBF7B8FD05466749FBF734F90F
:104FB00058498864022248316F48FEF797FB012068
:104FC000544981F84D00002081F83100012081F81A
:104FD0004C008CE00320604908705C49086B67490D
:104FE000FBF71AF90746664900F0D0F80646FBF7CA
:104FF0000BFB054600212846FBF7D0FB01D2002021
:1050000007E060492846FBF7D3FB01D25D4800E08A
:10501000284640494860C860086168E03D4890F80B
:10502000300088B13B49086A4FF07E51FBF7B6FB70
:105030000AD03849086A0021FBF7B0FB04D00120F0
:10504000344981F831005EE0324890F8300080B198
:105050003049086A0021FBF7A1FB0AD12D49486AB3
:105060004FF07E51FBF79AFB03D104203A490870B8
:1050700002E00120384908703449086BFBF72FFB28
:1050800005460022404BFBF73DFB03D80020214999
:10509000C8600CE02D49086BFBF721FB0546002298
:1050A000394BFBF747FB02D236481A49C860194A08
:1050B0001169D068FBF772FB06D00020154908750E
:1050C000012081F84C000EE0124890F84C000228B4
:1050D00009D11048806C0F4948640846C068486090
:1050E000002081F84C000B48C0680A490861094853
:1050F000006A084948624868FBF78CFD1C48006854
:105100001C49086000BF18E700080140000C01407E
:1051100000002041F80600200000C04048070020A1
:105120009A99494168000020C4000020C80000206E
:10513000BD378635CDCC4C3D600100209801002064
:10514000F4F9000800007A44E02E6542F0050020E2
:10515000EC000020F0000020080100200AD7233CCA
:105160005401002090070020D807002020080020CC
:10517000F8000020FC00002000F800080000C842F1
:10518000713D8A3E0000B4430000E03F2DE9F0414C
:1051900004460D4629462046FBF770F80746FBF704
:1051A00052FA06463046BDE8F08100002DE9F04F86
:1051B0008BB082468B46FEF735FB7548006880F061
:1051C00000454FF080412846FBF758F80446514609
:1051D000FBF7EEFA09D26E48006880F000444FF009
:1051E00080412046FBF74AF812E04FF080416848C2
:1051F0000068FBF743F804465146FBF7CFFA06D2A6
:105200004FF0804162480068FBF738F800E05046F4
:1052100082465846FFF7C8FB83465846FBF75FFABD
:10522000804600F0C3F806460F468AF00048404624
:10523000FBF755FA32463B46CDE90801FBF703F987
:105240000446FBF78FFA534908605846FBF747FAC4
:10525000CDE90801FFF7ECFB04460D465046FBF78D
:105260003EFA804622462B46FBF7EDF80646FBF752
:1052700079FA494908604FF0804145480068FAF7DB
:10528000FDFF0446434801682046FAF76DFF434995
:1052900008604FF080413E480068FAF7EFFF04468F
:1052A000FBF71DFACDE906013A480068FBF717FA4B
:1052B00006460F4638480068FBF711FACDE90001B1
:1052C0000020374900F0C2F80446DDE90023FBF76F
:1052D000BAF832463B46CDE90201FBF7AEF880460C
:1052E00000224FF08043FBF720F9CDE90401DDE90E
:1052F0000623FBF701F8CDE90801FBF733FA29494A
:1053000008604FF0804122480068FAF7B7FF044672
:10531000FBF7E5F9804689461F480068FBF7DFF98F
:1053200004460D4600201E4900F090F8064622462D
:105330002B46FBF788F8CDE902011648006880F09B
:1053400000442046FBF7CBF9CDE90001DDE902235B
:10535000FBF773F800224FF08043CDE90401FBF71F
:10536000E4F842464B46CDE90601FAF7C5FFCDE920
:105370000801FBF7F7F90C4908600846026809487C
:10538000016806480068FDF713FC0BB0BDE8F08F1C
:105390006800002094000020980000209C0000205D
:1053A00000000840A0000020A400002000B5254B0C
:1053B00021F0004287B09A4203DC0022134600929B
:1053C0002BE0214B9A4208D140B94FF00100FFF782
:1053D000E5FAFFF7C4FA07B000BD03DBFFF7BCFA3C
:1053E00007B000BD02AAFEF7A9FF10F003014FF0BD
:1053F00001000DD0012914D002291AD00DF1080C9A
:105400009CE80F00FFF75EF907B081F0004100BD96
:105410000DF1080C00909CE80F00FFF727FA07B089
:1054200000BD0DF1080C9CE80F00FFF74BF907B029
:1054300000BD0DF1080C00909CE80F00FFF716FA74
:10544000E2E70000FB21E93F0000F07F2DE9F04199
:1054500006460F46FBF76BFA04000D4618BF012005
:10546000284320F00040C0F17F6000F1E040C00F11
:105470000ED0301C18BF0120384320F00040C0F18E
:105480007F6000F1E040C00F04BF0120FFF786FA03
:1054900020462946BDE8F0810203040506070809F5
:1054A0000A0B0C0D0E0F101001020000000000008E
:1054B00000000102030406070809000000000102C1
:1054C00003040000000000004C5555555555A53FFC
:1054D0007751C1166CC156BF9015CB19A001FA3E89
:1054E000AD529C804F7E92BEC4B1B4BD9EEE213EB3
:1054F000D43888BEE9FAA8BD00004054FB21F93F2A
:105500003163621A61B4D03D0000601A61B4D03DCD
:105510007370032E8A19A33B0000002E8A19A33B47
:10552000C14920259A837B3900000000000000005B
:105530006E83F9A22915444ED15727FCC0DD34F5FE
:10554000999562DB4190433CAB6351FE61C5BBDE84
:105550003A6E24B7E0D24D42EA2E49061C92D10998
:105560001CEB1DFE3EA729B1F53582E88444BB2E15
:1055700026709CE9417E5FB439D69139F439538362
:105580008B5F849C3B28F9BDFF97F81F0F9805DEC1
:105590008B112FEF1F6D0A5ACF7E366DB709CB27BF
:1055A000663F464F2DEA5F9EC7BA27757BF1E5EB54
:1055B000F739073DEA92528AB15FFB6B085D8D1F98
:1055C000A6F810111111813FD561C119A0012ABFA0
:1055D0007DFEB157E31DC73EEB9C2B8AE6E55ABE24
:1055E0007CD5CF5A3AD9E53D085600080000002086
:1055F00054010000C40A00082C5600085401002081
:105600007C0B00008C4900080171420142014220DC
:105610004221421902400C0620FFFFFFFF070559F7
:0C562000E4CB96414210520163127A0064
:04000005080000ED02
:00000001FF
