Component: ARM Compiler 5.05 update 1 (build 106) Tool: armlink [4d0efa]

==============================================================================

Section Cross References

    startup_stm32f103xb.o(RESET) refers to startup_stm32f103xb.o(STACK) for __initial_sp
    startup_stm32f103xb.o(RESET) refers to startup_stm32f103xb.o(.text) for Reset_Handler
    startup_stm32f103xb.o(RESET) refers to stm32f1xx_it.o(i.NMI_Handler) for NMI_Handler
    startup_stm32f103xb.o(RESET) refers to stm32f1xx_it.o(i.HardFault_Handler) for HardFault_Handler
    startup_stm32f103xb.o(RESET) refers to stm32f1xx_it.o(i.MemManage_Handler) for MemManage_Handler
    startup_stm32f103xb.o(RESET) refers to stm32f1xx_it.o(i.BusFault_Handler) for BusFault_Handler
    startup_stm32f103xb.o(RESET) refers to stm32f1xx_it.o(i.UsageFault_Handler) for UsageFault_Handler
    startup_stm32f103xb.o(RESET) refers to stm32f1xx_it.o(i.SVC_Handler) for SVC_Handler
    startup_stm32f103xb.o(RESET) refers to stm32f1xx_it.o(i.DebugMon_Handler) for DebugMon_Handler
    startup_stm32f103xb.o(RESET) refers to stm32f1xx_it.o(i.PendSV_Handler) for PendSV_Handler
    startup_stm32f103xb.o(RESET) refers to stm32f1xx_it.o(i.SysTick_Handler) for SysTick_Handler
    startup_stm32f103xb.o(RESET) refers to stm32f1xx_it.o(i.TIM1_UP_IRQHandler) for TIM1_UP_IRQHandler
    startup_stm32f103xb.o(RESET) refers to stm32f1xx_it.o(i.TIM2_IRQHandler) for TIM2_IRQHandler
    startup_stm32f103xb.o(RESET) refers to stm32f1xx_it.o(i.TIM3_IRQHandler) for TIM3_IRQHandler
    startup_stm32f103xb.o(RESET) refers to stm32f1xx_it.o(i.TIM4_IRQHandler) for TIM4_IRQHandler
    startup_stm32f103xb.o(.text) refers to system_stm32f1xx.o(i.SystemInit) for SystemInit
    startup_stm32f103xb.o(.text) refers to entry.o(.ARM.Collect$$$$00000000) for __main
    as5600.o(i.Sensor_update) refers to as5600.o(i.getSensorAngle) for getSensorAngle
==============================================================================

Removing Unused input sections from the image.

    Removing startup_stm32f103xb.o(HEAP), (512 bytes).
    Removing as5600.o(.rev16_text), (4 bytes).
    Removing as5600.o(.revsh_text), (4 bytes).
    Removing as5600.o(.rrx_text), (6 bytes).
    Removing dengfoc.o(.rev16_text), (4 bytes).
    Removing dengfoc.o(.revsh_text), (4 bytes).
    Removing dengfoc.o(.rrx_text), (6 bytes).
    Removing dengfoc.o(i.DFOC_M0_setVelocity), (60 bytes).
    Removing dengfoc.o(i.DFOC_M0_set_Force_Angle), (80 bytes).
    Removing dengfoc.o(i.DFOC_disable), (2 bytes).
    Removing dengfoc.o(i.DFOC_enable), (2 bytes).
    Removing lowpass_filter.o(.rev16_text), (4 bytes).
    Removing lowpass_filter.o(.revsh_text), (4 bytes).
    Removing lowpass_filter.o(.rrx_text), (6 bytes).
    Removing pid.o(.rev16_text), (4 bytes).
    Removing pid.o(.revsh_text), (4 bytes).
    Removing pid.o(.rrx_text), (6 bytes).
    Removing stmflash.o(.rev16_text), (4 bytes).
==============================================================================

Image Symbol Table

    Local Symbols

    Symbol Name                              Value     Ov Type        Size  Object(Section)

    ../Core/Src/gpio.c                       0x00000000   Number         0  gpio.o ABSOLUTE
    ../Core/Src/main.c                       0x00000000   Number         0  main.o ABSOLUTE
    ../Core/Src/stm32f1xx_hal_msp.c          0x00000000   Number         0  stm32f1xx_hal_msp.o ABSOLUTE
    ../Core/Src/stm32f1xx_it.c               0x00000000   Number         0  stm32f1xx_it.o ABSOLUTE
    ../Core/Src/system_stm32f1xx.c           0x00000000   Number         0  system_stm32f1xx.o ABSOLUTE
    ../Core/Src/tim.c                        0x00000000   Number         0  tim.o ABSOLUTE
    ../Core/Src/usart.c                      0x00000000   Number         0  usart.o ABSOLUTE
    ../Drivers/STM32F1xx_HAL_Driver/Src/stm32f1xx_hal.c 0x00000000   Number         0  stm32f1xx_hal.o ABSOLUTE
    ../Drivers/STM32F1xx_HAL_Driver/Src/stm32f1xx_hal_cortex.c 0x00000000   Number         0  stm32f1xx_hal_cortex.o ABSOLUTE
    ../Drivers/STM32F1xx_HAL_Driver/Src/stm32f1xx_hal_dma.c 0x00000000   Number         0  stm32f1xx_hal_dma.o ABSOLUTE
    ../Drivers/STM32F1xx_HAL_Driver/Src/stm32f1xx_hal_exti.c 0x00000000   Number         0  stm32f1xx_hal_exti.o ABSOLUTE
    ../Drivers/STM32F1xx_HAL_Driver/Src/stm32f1xx_hal_flash.c 0x00000000   Number         0  stm32f1xx_hal_flash.o ABSOLUTE
    ../Drivers/STM32F1xx_HAL_Driver/Src/stm32f1xx_hal_flash_ex.c 0x00000000   Number         0  stm32f1xx_hal_flash_ex.o ABSOLUTE
    ../Drivers/STM32F1xx_HAL_Driver/Src/stm32f1xx_hal_gpio.c 0x00000000   Number         0  stm32f1xx_hal_gpio.o ABSOLUTE
    ../Drivers/STM32F1xx_HAL_Driver/Src/stm32f1xx_hal_gpio_ex.c 0x00000000   Number         0  stm32f1xx_hal_gpio_ex.o ABSOLUTE
    ../Drivers/STM32F1xx_HAL_Driver/Src/stm32f1xx_hal_pwr.c 0x00000000   Number         0  stm32f1xx_hal_pwr.o ABSOLUTE
    ../Drivers/STM32F1xx_HAL_Driver/Src/stm32f1xx_hal_rcc.c 0x00000000   Number         0  stm32f1xx_hal_rcc.o ABSOLUTE
    ../Drivers/STM32F1xx_HAL_Driver/Src/stm32f1xx_hal_rcc_ex.c 0x00000000   Number         0  stm32f1xx_hal_rcc_ex.o ABSOLUTE
    ../Drivers/STM32F1xx_HAL_Driver/Src/stm32f1xx_hal_tim.c 0x00000000   Number         0  stm32f1xx_hal_tim.o ABSOLUTE
    ../Drivers/STM32F1xx_HAL_Driver/Src/stm32f1xx_hal_tim_ex.c 0x00000000   Number         0  stm32f1xx_hal_tim_ex.o ABSOLUTE
    ../Drivers/STM32F1xx_HAL_Driver/Src/stm32f1xx_hal_uart.c 0x00000000   Number         0  stm32f1xx_hal_uart.o ABSOLUTE
    ../clib/../cmprslib/zerorunl.c           0x00000000   Number         0  __dczerorl.o ABSOLUTE
    ../clib/microlib/errno.c                 0x00000000   Number         0  errno.o ABSOLUTE
    ../clib/microlib/init/entry.s            0x00000000   Number         0  entry11a.o ABSOLUTE
    ../clib/microlib/init/entry.s            0x00000000   Number         0  entry11b.o ABSOLUTE
    ../clib/microlib/init/entry.s            0x00000000   Number         0  entry8a.o ABSOLUTE
    ../clib/microlib/init/entry.s            0x00000000   Number         0  entry9b.o ABSOLUTE
    ../clib/microlib/init/entry.s            0x00000000   Number         0  entry.o ABSOLUTE
    ../clib/microlib/init/entry.s            0x00000000   Number         0  entry5.o ABSOLUTE
    ../clib/microlib/init/entry.s            0x00000000   Number         0  entry10a.o ABSOLUTE
    ../clib/microlib/init/entry.s            0x00000000   Number         0  entry8b.o ABSOLUTE
    ../clib/microlib/init/entry.s            0x00000000   Number         0  entry10b.o ABSOLUTE
    ../clib/microlib/init/entry.s            0x00000000   Number         0  entry2.o ABSOLUTE
    ../clib/microlib/init/entry.s            0x00000000   Number         0  entry9a.o ABSOLUTE
    ../clib/microlib/init/entry.s            0x00000000   Number         0  entry7a.o ABSOLUTE
    ../clib/microlib/init/entry.s            0x00000000   Number         0  entry7b.o ABSOLUTE
    ../clib/microlib/longlong.c              0x00000000   Number         0  llshl.o ABSOLUTE
    ../clib/microlib/longlong.c              0x00000000   Number         0  llushr.o ABSOLUTE
    ../clib/microlib/longlong.c              0x00000000   Number         0  llsshr.o ABSOLUTE
    ../clib/microlib/string/memset.c         0x00000000   Number         0  memseta.o ABSOLUTE
    ../clib/microlib/stubs.s                 0x00000000   Number         0  iusefp.o ABSOLUTE
    ../fplib/microlib/d2f.c                  0x00000000   Number         0  d2f.o ABSOLUTE
    ../fplib/microlib/f2d.c                  0x00000000   Number         0  f2d.o ABSOLUTE
    ../fplib/microlib/fpadd.c                0x00000000   Number         0  fadd.o ABSOLUTE
    ../fplib/microlib/fpadd.c                0x00000000   Number         0  dadd.o ABSOLUTE
    ../fplib/microlib/fpdiv.c                0x00000000   Number         0  ddiv.o ABSOLUTE
    ../fplib/microlib/fpdiv.c                0x00000000   Number         0  fdiv.o ABSOLUTE
    ../fplib/microlib/fpepilogue.c           0x00000000   Number         0  fepilogue.o ABSOLUTE
    ../fplib/microlib/fpepilogue.c           0x00000000   Number         0  depilogue.o ABSOLUTE
    ../fplib/microlib/fpfix.c                0x00000000   Number         0  ffixui.o ABSOLUTE
    ../fplib/microlib/fpfix.c                0x00000000   Number         0  dfixi.o ABSOLUTE
    ../fplib/microlib/fpfix.c                0x00000000   Number         0  ffixi.o ABSOLUTE
    ../fplib/microlib/fpflt.c                0x00000000   Number         0  dfltui.o ABSOLUTE
    ../fplib/microlib/fpflt.c                0x00000000   Number         0  fflti.o ABSOLUTE
    ../fplib/microlib/fpflt.c                0x00000000   Number         0  ffltui.o ABSOLUTE
    ../fplib/microlib/fpflt.c                0x00000000   Number         0  dflti.o ABSOLUTE
    ../fplib/microlib/fpmul.c                0x00000000   Number         0  fmul.o ABSOLUTE
    ../fplib/microlib/fpmul.c                0x00000000   Number         0  dmul.o ABSOLUTE
    ../fplib/microlib/fprem.c                0x00000000   Number         0  drem.o ABSOLUTE
    ../fplib/microlib/fpscalb.c              0x00000000   Number         0  dscalb.o ABSOLUTE
    ../fplib/microlib/fpsqrt.c               0x00000000   Number         0  dsqrt.o ABSOLUTE
    ../mathlib/cos.c                         0x00000000   Number         0  cos.o ABSOLUTE
    ../mathlib/cos.c                         0x00000000   Number         0  cos_x.o ABSOLUTE
    ../mathlib/cos_i.c                       0x00000000   Number         0  cos_i.o ABSOLUTE
    ../mathlib/dunder.c                      0x00000000   Number         0  dunder.o ABSOLUTE
    ../mathlib/floor.c                       0x00000000   Number         0  floor.o ABSOLUTE
    ../mathlib/fmod.c                        0x00000000   Number         0  fmod.o ABSOLUTE
    ../mathlib/fmod.c                        0x00000000   Number         0  fmod_x.o ABSOLUTE
    ../mathlib/fpclassify.c                  0x00000000   Number         0  fpclassify.o ABSOLUTE
    ../mathlib/poly.c                        0x00000000   Number         0  poly.o ABSOLUTE
    ../mathlib/rred.c                        0x00000000   Number         0  rred.o ABSOLUTE
    ../mathlib/sin.c                         0x00000000   Number         0  sin_x.o ABSOLUTE
    ../mathlib/sin.c                         0x00000000   Number         0  sin.o ABSOLUTE
    ../mathlib/sin_i.c                       0x00000000   Number         0  sin_i_x.o ABSOLUTE
    ../mathlib/sin_i.c                       0x00000000   Number         0  sin_i.o ABSOLUTE
    ../mathlib/sqrt.c                        0x00000000   Number         0  sqrt.o ABSOLUTE
    ../mathlib/sqrt.c                        0x00000000   Number         0  sqrt_x.o ABSOLUTE
    ..\Core\Src\As5600.c                     0x00000000   Number         0  as5600.o ABSOLUTE
    ..\Core\Src\DengFOC.c                    0x00000000   Number         0  dengfoc.o ABSOLUTE
    ..\Core\Src\gpio.c                       0x00000000   Number         0  gpio.o ABSOLUTE
    ..\Core\Src\lowpass_filter.c             0x00000000   Number         0  lowpass_filter.o ABSOLUTE
    ..\Core\Src\main.c                       0x00000000   Number         0  main.o ABSOLUTE
    ..\Core\Src\pid.c                        0x00000000   Number         0  pid.o ABSOLUTE
    ..\Core\Src\softi2c.c                    0x00000000   Number         0  softi2c.o ABSOLUTE
    ..\Core\Src\stm32f1xx_hal_msp.c          0x00000000   Number         0  stm32f1xx_hal_msp.o ABSOLUTE
    ..\Core\Src\stm32f1xx_it.c               0x00000000   Number         0  stm32f1xx_it.o ABSOLUTE
    ..\Core\Src\stmflash.c                   0x00000000   Number         0  stmflash.o ABSOLUTE
    ..\Core\Src\system_stm32f1xx.c           0x00000000   Number         0  system_stm32f1xx.o ABSOLUTE
    ..\Core\Src\tim.c                        0x00000000   Number         0  tim.o ABSOLUTE
    ..\Core\Src\usart.c                      0x00000000   Number         0  usart.o ABSOLUTE
    ..\Drivers\STM32F1xx_HAL_Driver\Src\stm32f1xx_hal.c 0x00000000   Number         0  stm32f1xx_hal.o ABSOLUTE
    ..\Drivers\STM32F1xx_HAL_Driver\Src\stm32f1xx_hal_cortex.c 0x00000000   Number         0  stm32f1xx_hal_cortex.o ABSOLUTE
    ..\Drivers\STM32F1xx_HAL_Driver\Src\stm32f1xx_hal_dma.c 0x00000000   Number         0  stm32f1xx_hal_dma.o ABSOLUTE
    ..\Drivers\STM32F1xx_HAL_Driver\Src\stm32f1xx_hal_exti.c 0x00000000   Number         0  stm32f1xx_hal_exti.o ABSOLUTE
    ..\Drivers\STM32F1xx_HAL_Driver\Src\stm32f1xx_hal_flash.c 0x00000000   Number         0  stm32f1xx_hal_flash.o ABSOLUTE
    ..\Drivers\STM32F1xx_HAL_Driver\Src\stm32f1xx_hal_flash_ex.c 0x00000000   Number         0  stm32f1xx_hal_flash_ex.o ABSOLUTE
    ..\Drivers\STM32F1xx_HAL_Driver\Src\stm32f1xx_hal_gpio.c 0x00000000   Number         0  stm32f1xx_hal_gpio.o ABSOLUTE
    ..\Drivers\STM32F1xx_HAL_Driver\Src\stm32f1xx_hal_gpio_ex.c 0x00000000   Number         0  stm32f1xx_hal_gpio_ex.o ABSOLUTE
    ..\Drivers\STM32F1xx_HAL_Driver\Src\stm32f1xx_hal_pwr.c 0x00000000   Number         0  stm32f1xx_hal_pwr.o ABSOLUTE
    ..\Drivers\STM32F1xx_HAL_Driver\Src\stm32f1xx_hal_rcc.c 0x00000000   Number         0  stm32f1xx_hal_rcc.o ABSOLUTE
    ..\Drivers\STM32F1xx_HAL_Driver\Src\stm32f1xx_hal_rcc_ex.c 0x00000000   Number         0  stm32f1xx_hal_rcc_ex.o ABSOLUTE
    ..\Drivers\STM32F1xx_HAL_Driver\Src\stm32f1xx_hal_tim.c 0x00000000   Number         0  stm32f1xx_hal_tim.o ABSOLUTE
    ..\Drivers\STM32F1xx_HAL_Driver\Src\stm32f1xx_hal_tim_ex.c 0x00000000   Number         0  stm32f1xx_hal_tim_ex.o ABSOLUTE
    ..\Drivers\STM32F1xx_HAL_Driver\Src\stm32f1xx_hal_uart.c 0x00000000   Number         0  stm32f1xx_hal_uart.o ABSOLUTE
    ..\\Core\\Src\\As5600.c                  0x00000000   Number         0  as5600.o ABSOLUTE
    ..\\Core\\Src\\DengFOC.c                 0x00000000   Number         0  dengfoc.o ABSOLUTE
    ..\\Core\\Src\\lowpass_filter.c          0x00000000   Number         0  lowpass_filter.o ABSOLUTE
    ..\\Core\\Src\\pid.c                     0x00000000   Number         0  pid.o ABSOLUTE
    ..\\Core\\Src\\softi2c.c                 0x00000000   Number         0  softi2c.o ABSOLUTE
    ..\\Core\\Src\\stmflash.c                0x00000000   Number         0  stmflash.o ABSOLUTE
    cdcmple.s                                0x00000000   Number         0  cdcmple.o ABSOLUTE
    cdrcmple.s                               0x00000000   Number         0  cdrcmple.o ABSOLUTE
    cfcmple.s                                0x00000000   Number         0  cfcmple.o ABSOLUTE
    cfrcmple.s                               0x00000000   Number         0  cfrcmple.o ABSOLUTE
    dc.s                                     0x00000000   Number         0  dc.o ABSOLUTE
    handlers.s                               0x00000000   Number         0  handlers.o ABSOLUTE
    init.s                                   0x00000000   Number         0  init.o ABSOLUTE
    startup_stm32f103xb.s                    0x00000000   Number         0  startup_stm32f103xb.o ABSOLUTE
    RESET                                    0x08000000   Section      236  startup_stm32f103xb.o(RESET)
    .ARM.Collect$$$$00000000                 0x080000ec   Section        0  entry.o(.ARM.Collect$$$$00000000)
    .ARM.Collect$$$$00000001                 0x080000ec   Section        4  entry2.o(.ARM.Collect$$$$00000001)
    .ARM.Collect$$$$00000004                 0x080000f0   Section        4  entry5.o(.ARM.Collect$$$$00000004)
    .ARM.Collect$$$$00000008                 0x080000f4   Section        0  entry7b.o(.ARM.Collect$$$$00000008)
    .ARM.Collect$$$$0000000A                 0x080000f4   Section        0  entry8b.o(.ARM.Collect$$$$0000000A)
    .ARM.Collect$$$$0000000B                 0x080000f4   Section        8  entry9a.o(.ARM.Collect$$$$0000000B)
    .ARM.Collect$$$$0000000D                 0x080000fc   Section        0  entry10a.o(.ARM.Collect$$$$0000000D)
    .ARM.Collect$$$$0000000F                 0x080000fc   Section        0  entry11a.o(.ARM.Collect$$$$0000000F)
    .ARM.Collect$$$$00002712                 0x080000fc   Section        4  entry2.o(.ARM.Collect$$$$00002712)
    __lit__00000000                          0x080000fc   Data           4  entry2.o(.ARM.Collect$$$$00002712)
    .text                                    0x08000100   Section       36  startup_stm32f103xb.o(.text)
    .text                                    0x08000124   Section        0  llushr.o(.text)
    .text                                    0x08000144   Section        0  memseta.o(.text)
    .text                                    0x08000168   Section        0  fadd.o(.text)
    .text                                    0x08000218   Section        0  fmul.o(.text)
    .text                                    0x0800027c   Section        0  fdiv.o(.text)
    .text                                    0x080002f8   Section        0  dadd.o(.text)
    .text                                    0x08000446   Section        0  dmul.o(.text)
    .text                                    0x0800052a   Section        0  ddiv.o(.text)
    .text                                    0x08000608   Section        0  fflti.o(.text)
    .text                                    0x0800061a   Section        0  ffltui.o(.text)
    .text                                    0x08000624   Section        0  dflti.o(.text)
    .text                                    0x08000646   Section        0  ffixi.o(.text)
    .text                                    0x08000678   Section        0  ffixui.o(.text)
    .text                                    0x080006a0   Section        0  dfixi.o(.text)
    .text                                    0x080006de   Section        0  f2d.o(.text)
    .text                                    0x08000704   Section       48  cdcmple.o(.text)
    .text                                    0x08000734   Section       48  cdrcmple.o(.text)
    .text                                    0x08000764   Section        0  d2f.o(.text)
    .text                                    0x0800079c   Section       20  cfcmple.o(.text)
    .text                                    0x080007b0   Section       20  cfrcmple.o(.text)
    .text                                    0x080007c4   Section        0  llshl.o(.text)
    .text                                    0x080007e2   Section        0  llsshr.o(.text)
    .text                                    0x08000806   Section        0  iusefp.o(.text)
    .text                                    0x08000806   Section        0  fepilogue.o(.text)
    .text                                    0x08000874   Section        0  depilogue.o(.text)
    .text                                    0x0800092e   Section        0  dsqrt.o(.text)
    .text                                    0x080009d0   Section        0  drem.o(.text)
    .text                                    0x08000a58   Section       36  init.o(.text)
    .text                                    0x08000a7c   Section        0  dscalb.o(.text)
    .text                                    0x08000aaa   Section        0  dfltui.o(.text)
    .text                                    0x08000ac4   Section        0  __dczerorl.o(.text)
    i.BusFault_Handler                       0x08000afe   Section        0  stm32f1xx_it.o(i.BusFault_Handler)
    i.DFOC_M0_ANGLE_PID                      0x08000b04   Section        0  dengfoc.o(i.DFOC_M0_ANGLE_PID)
    i.DFOC_M0_Angle                          0x08000b18   Section        0  dengfoc.o(i.DFOC_M0_Angle)
    i.DFOC_M0_VEL_PID                        0x08000b44   Section        0  dengfoc.o(i.DFOC_M0_VEL_PID)
    i.DFOC_M0_Velocity                       0x08000b58   Section        0  dengfoc.o(i.DFOC_M0_Velocity)
    i.DFOC_M0_alignSensor                    0x08000b9c   Section        0  dengfoc.o(i.DFOC_M0_alignSensor)
    i.DFOC_M0_setTorque                      0x08000c00   Section        0  dengfoc.o(i.DFOC_M0_setTorque)
    i.DFOC_M0_set_Velocity_Angle             0x08000c14   Section        0  dengfoc.o(i.DFOC_M0_set_Velocity_Angle)
    i.DebugMon_Handler                       0x08000c78   Section        0  stm32f1xx_it.o(i.DebugMon_Handler)
    i.Error_Handler                          0x08000c7a   Section        0  main.o(i.Error_Handler)
    i.FLASH_Program_HalfWord                 0x08000c80   Section        0  stm32f1xx_hal_flash.o(i.FLASH_Program_HalfWord)
    FLASH_Program_HalfWord                   0x08000c81   Thumb Code    22  stm32f1xx_hal_flash.o(i.FLASH_Program_HalfWord)
    i.FLASH_SetErrorCode                     0x08000ca0   Section        0  stm32f1xx_hal_flash.o(i.FLASH_SetErrorCode)
    FLASH_SetErrorCode                       0x08000ca1   Thumb Code   124  stm32f1xx_hal_flash.o(i.FLASH_SetErrorCode)
    i.FLASH_WaitForLastOperation             0x08000d24   Section        0  stm32f1xx_hal_flash.o(i.FLASH_WaitForLastOperation)
    i.Flash_PageErase                        0x08000d94   Section        0  stmflash.o(i.Flash_PageErase)
    i.HAL_Delay                              0x08000dbc   Section        0  stm32f1xx_hal.o(i.HAL_Delay)
    i.HAL_FLASH_Lock                         0x08000de4   Section        0  stm32f1xx_hal_flash.o(i.HAL_FLASH_Lock)
    i.HAL_FLASH_Program                      0x08000df8   Section        0  stm32f1xx_hal_flash.o(i.HAL_FLASH_Program)
    i.HAL_FLASH_Unlock                       0x08000ea8   Section        0  stm32f1xx_hal_flash.o(i.HAL_FLASH_Unlock)
    i.HAL_GPIO_Init                          0x08000ed8   Section        0  stm32f1xx_hal_gpio.o(i.HAL_GPIO_Init)
    i.HAL_GPIO_ReadPin                       0x080011f8   Section        0  stm32f1xx_hal_gpio.o(i.HAL_GPIO_ReadPin)
    i.HAL_GPIO_WritePin                      0x08001208   Section        0  stm32f1xx_hal_gpio.o(i.HAL_GPIO_WritePin)
    i.HAL_GetTick                            0x08001214   Section        0  stm32f1xx_hal.o(i.HAL_GetTick)
    i.HAL_IncTick                            0x08001220   Section        0  stm32f1xx_hal.o(i.HAL_IncTick)
    i.HAL_Init                               0x08001238   Section        0  stm32f1xx_hal.o(i.HAL_Init)
    i.HAL_InitTick                           0x08001260   Section        0  stm32f1xx_hal.o(i.HAL_InitTick)
    i.HAL_MspInit                            0x080012ac   Section        0  stm32f1xx_hal_msp.o(i.HAL_MspInit)
    i.HAL_NVIC_EnableIRQ                     0x08001300   Section        0  stm32f1xx_hal_cortex.o(i.HAL_NVIC_EnableIRQ)
    i.HAL_NVIC_SetPriority                   0x08001320   Section        0  stm32f1xx_hal_cortex.o(i.HAL_NVIC_SetPriority)
    i.HAL_NVIC_SetPriorityGrouping           0x0800139c   Section        0  stm32f1xx_hal_cortex.o(i.HAL_NVIC_SetPriorityGrouping)
    i.HAL_RCC_ClockConfig                    0x080013c4   Section        0  stm32f1xx_hal_rcc.o(i.HAL_RCC_ClockConfig)
    i.HAL_RCC_GetHCLKFreq                    0x08001550   Section        0  stm32f1xx_hal_rcc.o(i.HAL_RCC_GetHCLKFreq)
    i.HAL_RCC_GetPCLK1Freq                   0x0800155c   Section        0  stm32f1xx_hal_rcc.o(i.HAL_RCC_GetPCLK1Freq)
    i.HAL_RCC_GetPCLK2Freq                   0x0800157c   Section        0  stm32f1xx_hal_rcc.o(i.HAL_RCC_GetPCLK2Freq)
    i.HAL_RCC_GetSysClockFreq                0x0800159c   Section        0  stm32f1xx_hal_rcc.o(i.HAL_RCC_GetSysClockFreq)
    i.HAL_RCC_OscConfig                      0x0800160c   Section        0  stm32f1xx_hal_rcc.o(i.HAL_RCC_OscConfig)
    i.HAL_SYSTICK_Config                     0x08001a70   Section        0  stm32f1xx_hal_cortex.o(i.HAL_SYSTICK_Config)
    i.HAL_TIMEx_BreakCallback                0x08001aa4   Section        0  stm32f1xx_hal_tim_ex.o(i.HAL_TIMEx_BreakCallback)
    i.HAL_TIMEx_CommutCallback               0x08001aa6   Section        0  stm32f1xx_hal_tim_ex.o(i.HAL_TIMEx_CommutCallback)
    i.HAL_TIMEx_ConfigBreakDeadTime          0x08001aa8   Section        0  stm32f1xx_hal_tim_ex.o(i.HAL_TIMEx_ConfigBreakDeadTime)
    i.HAL_TIMEx_MasterConfigSynchronization  0x08001b1c   Section        0  stm32f1xx_hal_tim_ex.o(i.HAL_TIMEx_MasterConfigSynchronization)
    i.HAL_TIM_Base_Init                      0x08001ba0   Section        0  stm32f1xx_hal_tim.o(i.HAL_TIM_Base_Init)
    i.HAL_TIM_Base_MspInit                   0x08001c08   Section        0  tim.o(i.HAL_TIM_Base_MspInit)
    i.HAL_TIM_ConfigClockSource              0x08001dc8   Section        0  stm32f1xx_hal_tim.o(i.HAL_TIM_ConfigClockSource)
    i.HAL_TIM_IC_CaptureCallback             0x08001ed4   Section        0  main.o(i.HAL_TIM_IC_CaptureCallback)
    i.HAL_TIM_IC_ConfigChannel               0x080020d4   Section        0  stm32f1xx_hal_tim.o(i.HAL_TIM_IC_ConfigChannel)
    i.HAL_TIM_IC_Init                        0x080021b2   Section        0  stm32f1xx_hal_tim.o(i.HAL_TIM_IC_Init)
    i.HAL_TIM_IC_MspInit                     0x08002218   Section        0  stm32f1xx_hal_tim.o(i.HAL_TIM_IC_MspInit)
    i.HAL_TIM_IC_Start_IT                    0x0800221c   Section        0  stm32f1xx_hal_tim.o(i.HAL_TIM_IC_Start_IT)
    i.HAL_TIM_IRQHandler                     0x0800237c   Section        0  stm32f1xx_hal_tim.o(i.HAL_TIM_IRQHandler)
    i.HAL_TIM_MspPostInit                    0x080024e8   Section        0  tim.o(i.HAL_TIM_MspPostInit)
    i.HAL_TIM_OC_DelayElapsedCallback        0x08002540   Section        0  stm32f1xx_hal_tim.o(i.HAL_TIM_OC_DelayElapsedCallback)
    i.HAL_TIM_PWM_ConfigChannel              0x08002542   Section        0  stm32f1xx_hal_tim.o(i.HAL_TIM_PWM_ConfigChannel)
    i.HAL_TIM_PWM_Init                       0x08002646   Section        0  stm32f1xx_hal_tim.o(i.HAL_TIM_PWM_Init)
    i.HAL_TIM_PWM_MspInit                    0x080026ac   Section        0  stm32f1xx_hal_tim.o(i.HAL_TIM_PWM_MspInit)
    i.HAL_TIM_PWM_PulseFinishedCallback      0x080026ae   Section        0  stm32f1xx_hal_tim.o(i.HAL_TIM_PWM_PulseFinishedCallback)
    i.HAL_TIM_PWM_Start                      0x080026b0   Section        0  stm32f1xx_hal_tim.o(i.HAL_TIM_PWM_Start)
    i.HAL_TIM_PeriodElapsedCallback          0x08002784   Section        0  main.o(i.HAL_TIM_PeriodElapsedCallback)
    i.HAL_TIM_ReadCapturedValue              0x08002798   Section        0  stm32f1xx_hal_tim.o(i.HAL_TIM_ReadCapturedValue)
    i.HAL_TIM_SlaveConfigSynchro             0x080027ca   Section        0  stm32f1xx_hal_tim.o(i.HAL_TIM_SlaveConfigSynchro)
    i.HAL_TIM_TriggerCallback                0x08002836   Section        0  stm32f1xx_hal_tim.o(i.HAL_TIM_TriggerCallback)
    i.HAL_UART_Init                          0x08002838   Section        0  stm32f1xx_hal_uart.o(i.HAL_UART_Init)
    i.HAL_UART_MspInit                       0x080028b0   Section        0  usart.o(i.HAL_UART_MspInit)
    i.HardFault_Handler                      0x08002934   Section        0  stm32f1xx_it.o(i.HardFault_Handler)
    i.IIC_Ack                                0x08002938   Section        0  softi2c.o(i.IIC_Ack)
    i.IIC_NAck                               0x0800297c   Section        0  softi2c.o(i.IIC_NAck)
    i.IIC_Read_Byte                          0x080029bc   Section        0  softi2c.o(i.IIC_Read_Byte)
    i.IIC_Send_Byte                          0x08002a20   Section        0  softi2c.o(i.IIC_Send_Byte)
    i.IIC_Start                              0x08002a8c   Section        0  softi2c.o(i.IIC_Start)
    i.IIC_Stop                               0x08002acc   Section        0  softi2c.o(i.IIC_Stop)
    i.IIC_Wait_Ack                           0x08002b0c   Section        0  softi2c.o(i.IIC_Wait_Ack)
    i.LowPassFilter_Init                     0x08002b6c   Section        0  lowpass_filter.o(i.LowPassFilter_Init)
    i.LowPassFilter_Update                   0x08002b74   Section        0  lowpass_filter.o(i.LowPassFilter_Update)
    i.M0_setPwm                              0x08002bb0   Section        0  dengfoc.o(i.M0_setPwm)
    i.M0_setTorque                           0x08002d4c   Section        0  dengfoc.o(i.M0_setTorque)
    i.MX_GPIO_Init                           0x080030c4   Section        0  gpio.o(i.MX_GPIO_Init)
    i.MX_TIM1_Init                           0x08003188   Section        0  tim.o(i.MX_TIM1_Init)
    i.MX_TIM2_Init                           0x08003284   Section        0  tim.o(i.MX_TIM2_Init)
    i.MX_TIM3_Init                           0x08003364   Section        0  tim.o(i.MX_TIM3_Init)
    i.MX_TIM4_Init                           0x08003444   Section        0  tim.o(i.MX_TIM4_Init)
    i.MX_USART2_UART_Init                    0x08003524   Section        0  usart.o(i.MX_USART2_UART_Init)
    i.MemManage_Handler                      0x0800355c   Section        0  stm32f1xx_it.o(i.MemManage_Handler)
    i.NMI_Handler                            0x08003560   Section        0  stm32f1xx_it.o(i.NMI_Handler)
    i.PID_Init                               0x08003564   Section        0  pid.o(i.PID_Init)
    i.PID_Update                             0x0800357e   Section        0  pid.o(i.PID_Update)
    i.PendSV_Handler                         0x080035fe   Section        0  stm32f1xx_it.o(i.PendSV_Handler)
    i.RCC_Delay                              0x08003600   Section        0  stm32f1xx_hal_rcc.o(i.RCC_Delay)
    RCC_Delay                                0x08003601   Thumb Code    36  stm32f1xx_hal_rcc.o(i.RCC_Delay)
    i.S0_electricalAngle                     0x08003628   Section        0  dengfoc.o(i.S0_electricalAngle)
    i.SDA_IN                                 0x0800366c   Section        0  softi2c.o(i.SDA_IN)
    i.SDA_OUT                                0x08003698   Section        0  softi2c.o(i.SDA_OUT)
    i.STMFLASH_Read                          0x080036c4   Section        0  stmflash.o(i.STMFLASH_Read)
    i.STMFLASH_ReadHalfWord                  0x080036e6   Section        0  stmflash.o(i.STMFLASH_ReadHalfWord)
    i.STMFLASH_Write                         0x080036ec   Section        0  stmflash.o(i.STMFLASH_Write)
    i.STMFLASH_Write_NoCheck                 0x080037f4   Section        0  stmflash.o(i.STMFLASH_Write_NoCheck)
    i.SVC_Handler                            0x08003820   Section        0  stm32f1xx_it.o(i.SVC_Handler)
    i.Sensor_update                          0x08003824   Section        0  as5600.o(i.Sensor_update)
    i.SysTick_Handler                        0x08003894   Section        0  stm32f1xx_it.o(i.SysTick_Handler)
    i.SysTick_callback                       0x080038a0   Section        0  main.o(i.SysTick_callback)
    i.SystemClock_Config                     0x08003cd8   Section        0  main.o(i.SystemClock_Config)
    i.SystemInit                             0x08003d3a   Section        0  system_stm32f1xx.o(i.SystemInit)
    i.TIM1_UP_IRQHandler                     0x08003d3c   Section        0  stm32f1xx_it.o(i.TIM1_UP_IRQHandler)
    i.TIM2_IRQHandler                        0x08003d4c   Section        0  stm32f1xx_it.o(i.TIM2_IRQHandler)
    i.TIM3_IRQHandler                        0x08003d5c   Section        0  stm32f1xx_it.o(i.TIM3_IRQHandler)
    i.TIM4_IRQHandler                        0x08003d6c   Section        0  stm32f1xx_it.o(i.TIM4_IRQHandler)
    i.TIM_Base_SetConfig                     0x08003d7c   Section        0  stm32f1xx_hal_tim.o(i.TIM_Base_SetConfig)
    i.TIM_CCxChannelCmd                      0x08003e00   Section        0  stm32f1xx_hal_tim.o(i.TIM_CCxChannelCmd)
    i.TIM_ETR_SetConfig                      0x08003e22   Section        0  stm32f1xx_hal_tim.o(i.TIM_ETR_SetConfig)
    i.TIM_ITRx_SetConfig                     0x08003e38   Section        0  stm32f1xx_hal_tim.o(i.TIM_ITRx_SetConfig)
    TIM_ITRx_SetConfig                       0x08003e39   Thumb Code    18  stm32f1xx_hal_tim.o(i.TIM_ITRx_SetConfig)
    i.TIM_OC1_SetConfig                      0x08003e4c   Section        0  stm32f1xx_hal_tim.o(i.TIM_OC1_SetConfig)
    TIM_OC1_SetConfig                        0x08003e4d   Thumb Code    90  stm32f1xx_hal_tim.o(i.TIM_OC1_SetConfig)
    i.TIM_OC2_SetConfig                      0x08003eac   Section        0  stm32f1xx_hal_tim.o(i.TIM_OC2_SetConfig)
    i.TIM_OC3_SetConfig                      0x08003f14   Section        0  stm32f1xx_hal_tim.o(i.TIM_OC3_SetConfig)
    TIM_OC3_SetConfig                        0x08003f15   Thumb Code    98  stm32f1xx_hal_tim.o(i.TIM_OC3_SetConfig)
    i.TIM_OC4_SetConfig                      0x08003f7c   Section        0  stm32f1xx_hal_tim.o(i.TIM_OC4_SetConfig)
    TIM_OC4_SetConfig                        0x08003f7d   Thumb Code    68  stm32f1xx_hal_tim.o(i.TIM_OC4_SetConfig)
    i.TIM_SlaveTimer_SetConfig               0x08003fc4   Section        0  stm32f1xx_hal_tim.o(i.TIM_SlaveTimer_SetConfig)
    TIM_SlaveTimer_SetConfig                 0x08003fc5   Thumb Code   178  stm32f1xx_hal_tim.o(i.TIM_SlaveTimer_SetConfig)
    i.TIM_TI1_ConfigInputStage               0x08004076   Section        0  stm32f1xx_hal_tim.o(i.TIM_TI1_ConfigInputStage)
    TIM_TI1_ConfigInputStage                 0x08004077   Thumb Code    38  stm32f1xx_hal_tim.o(i.TIM_TI1_ConfigInputStage)
    i.TIM_TI1_SetConfig                      0x0800409c   Section        0  stm32f1xx_hal_tim.o(i.TIM_TI1_SetConfig)
    i.TIM_TI2_ConfigInputStage               0x08004104   Section        0  stm32f1xx_hal_tim.o(i.TIM_TI2_ConfigInputStage)
    TIM_TI2_ConfigInputStage                 0x08004105   Thumb Code    40  stm32f1xx_hal_tim.o(i.TIM_TI2_ConfigInputStage)
    i.TIM_TI2_SetConfig                      0x0800412c   Section        0  stm32f1xx_hal_tim.o(i.TIM_TI2_SetConfig)
    TIM_TI2_SetConfig                        0x0800412d   Thumb Code    58  stm32f1xx_hal_tim.o(i.TIM_TI2_SetConfig)
    i.TIM_TI3_SetConfig                      0x08004166   Section        0  stm32f1xx_hal_tim.o(i.TIM_TI3_SetConfig)
    TIM_TI3_SetConfig                        0x08004167   Thumb Code    56  stm32f1xx_hal_tim.o(i.TIM_TI3_SetConfig)
    i.TIM_TI4_SetConfig                      0x0800419e   Section        0  stm32f1xx_hal_tim.o(i.TIM_TI4_SetConfig)
    TIM_TI4_SetConfig                        0x0800419f   Thumb Code    60  stm32f1xx_hal_tim.o(i.TIM_TI4_SetConfig)
    i.UART_SetConfig                         0x080041dc   Section        0  stm32f1xx_hal_uart.o(i.UART_SetConfig)
    UART_SetConfig                           0x080041dd   Thumb Code   248  stm32f1xx_hal_uart.o(i.UART_SetConfig)
    i.UsageFault_Handler                     0x080042d8   Section        0  stm32f1xx_it.o(i.UsageFault_Handler)
    i.__ARM_fpclassify                       0x080042dc   Section        0  fpclassify.o(i.__ARM_fpclassify)
    i.__NVIC_GetPriorityGrouping             0x08004304   Section        0  stm32f1xx_hal_cortex.o(i.__NVIC_GetPriorityGrouping)
    __NVIC_GetPriorityGrouping               0x08004305   Thumb Code    10  stm32f1xx_hal_cortex.o(i.__NVIC_GetPriorityGrouping)
    i.__NVIC_SetPriority                     0x08004314   Section        0  stm32f1xx_hal_cortex.o(i.__NVIC_SetPriority)
    __NVIC_SetPriority                       0x08004315   Thumb Code    32  stm32f1xx_hal_cortex.o(i.__NVIC_SetPriority)
    i.__ieee754_rem_pio2                     0x0800433c   Section        0  rred.o(i.__ieee754_rem_pio2)
    i.__kernel_cos                           0x080046c4   Section        0  cos_i.o(i.__kernel_cos)
    i.__kernel_poly                          0x080047c0   Section        0  poly.o(i.__kernel_poly)
    i.__kernel_sin                           0x0800486c   Section        0  sin_i.o(i.__kernel_sin)
    i.__mathlib_dbl_infnan                   0x08004958   Section        0  dunder.o(i.__mathlib_dbl_infnan)
    i.__mathlib_dbl_invalid                  0x0800495e   Section        0  dunder.o(i.__mathlib_dbl_invalid)
    i.__mathlib_dbl_underflow                0x0800496c   Section        0  dunder.o(i.__mathlib_dbl_underflow)
    i.__scatterload_copy                     0x0800497c   Section       14  handlers.o(i.__scatterload_copy)
    i.__scatterload_null                     0x0800498a   Section        2  handlers.o(i.__scatterload_null)
    i.__scatterload_zeroinit                 0x0800498c   Section       14  handlers.o(i.__scatterload_zeroinit)
    i.__set_errno                            0x0800499c   Section        0  errno.o(i.__set_errno)
    i._normalizeAngle                        0x080049a8   Section        0  dengfoc.o(i._normalizeAngle)
    i.bsp_as5600GetRawAngle                  0x080049ec   Section        0  as5600.o(i.bsp_as5600GetRawAngle)
    i.cos                                    0x08004a30   Section        0  cos.o(i.cos)
    i.delay_s                                0x08004acc   Section        0  softi2c.o(i.delay_s)
    i.floor                                  0x08004ad8   Section        0  floor.o(i.floor)
    i.fmod                                   0x08004bb4   Section        0  fmod.o(i.fmod)
    i.getAngle                               0x08004c48   Section        0  as5600.o(i.getAngle)
    i.getMechanicalAngle                     0x08004c74   Section        0  as5600.o(i.getMechanicalAngle)
    i.getSensorAngle                         0x08004c80   Section        0  as5600.o(i.getSensorAngle)
    i.getVelocity                            0x08004cb4   Section        0  as5600.o(i.getVelocity)
    i.main                                   0x08004d78   Section        0  main.o(i.main)
    i.scale_to_range                         0x0800518c   Section        0  main.o(i.scale_to_range)
    i.setTorque                              0x080051ac   Section        0  dengfoc.o(i.setTorque)
    i.sin                                    0x080053ac   Section        0  sin.o(i.sin)
    i.sqrt                                   0x0800544c   Section        0  sqrt.o(i.sqrt)
    .constdata                               0x08005498   Section       18  stm32f1xx_hal_rcc.o(.constdata)
    aPLLMULFactorTable                       0x08005498   Data          16  stm32f1xx_hal_rcc.o(.constdata)
    aPredivFactorTable                       0x080054a8   Data           2  stm32f1xx_hal_rcc.o(.constdata)
    .constdata                               0x080054aa   Section       24  system_stm32f1xx.o(.constdata)
    .constdata                               0x080054c8   Section       48  cos_i.o(.constdata)
    C                                        0x080054c8   Data          48  cos_i.o(.constdata)
    .constdata                               0x080054f8   Section      200  rred.o(.constdata)
    pio2s                                    0x080054f8   Data          48  rred.o(.constdata)
    twooverpi                                0x08005528   Data         152  rred.o(.constdata)
    .constdata                               0x080055c0   Section       40  sin_i.o(.constdata)
    S                                        0x080055c0   Data          40  sin_i.o(.constdata)
    .data                                    0x20000000   Section      104  as5600.o(.data)
    angle_data_prev                          0x20000000   Data           4  as5600.o(.data)
    .data                                    0x20000068   Section       84  dengfoc.o(.data)
    .data                                    0x200000c0   Section      128  main.o(.data)
    .data                                    0x20000140   Section        9  stm32f1xx_hal.o(.data)
    .data                                    0x2000014c   Section        4  system_stm32f1xx.o(.data)
    .data                                    0x20000150   Section        4  errno.o(.data)
    _errno                                   0x20000150   Data           4  errno.o(.data)
    .bss                                     0x20000154   Section      124  dengfoc.o(.bss)
    .bss                                     0x200001d0   Section     1056  stmflash.o(.bss)
    .bss                                     0x200005f0   Section      344  main.o(.bss)
    .bss                                     0x20000748   Section      288  tim.o(.bss)
    .bss                                     0x20000868   Section       72  usart.o(.bss)
    .bss                                     0x200008b0   Section       32  stm32f1xx_hal_flash.o(.bss)
    STACK                                    0x200008d0   Section     1024  startup_stm32f103xb.o(STACK)

    Global Symbols

    Symbol Name                              Value     Ov Type        Size  Object(Section)

    BuildAttributes$$THM_ISAv4$P$D$K$B$S$PE$A:L22UL41UL21$X:L11$S22US41US21$IEEE1$IW$USESV6$~STKCKD$USESV7$~SHL$OTIME$ROPI$IEEEX$EBA8$MICROLIB$REQ8$PRES8$EABIv2 0x00000000   Number         0  anon$$obj.o ABSOLUTE
    __ARM_use_no_argv                        0x00000000   Number         0  main.o ABSOLUTE
    __cpp_initialize__aeabi_                  - Undefined Weak Reference
    __cxa_finalize                            - Undefined Weak Reference
    _clock_init                               - Undefined Weak Reference
    _microlib_exit                            - Undefined Weak Reference
    __Vectors_Size                           0x000000ec   Number         0  startup_stm32f103xb.o ABSOLUTE
    __Vectors                                0x08000000   Data           4  startup_stm32f103xb.o(RESET)
    __Vectors_End                            0x080000ec   Data           0  startup_stm32f103xb.o(RESET)
    __main                                   0x080000ed   Thumb Code     0  entry.o(.ARM.Collect$$$$00000000)
    _main_stk                                0x080000ed   Thumb Code     0  entry2.o(.ARM.Collect$$$$00000001)
    _main_scatterload                        0x080000f1   Thumb Code     0  entry5.o(.ARM.Collect$$$$00000004)
    __main_after_scatterload                 0x080000f5   Thumb Code     0  entry5.o(.ARM.Collect$$$$00000004)
    _main_clock                              0x080000f5   Thumb Code     0  entry7b.o(.ARM.Collect$$$$00000008)
    _main_cpp_init                           0x080000f5   Thumb Code     0  entry8b.o(.ARM.Collect$$$$0000000A)
    _main_init                               0x080000f5   Thumb Code     0  entry9a.o(.ARM.Collect$$$$0000000B)
    __rt_final_cpp                           0x080000fd   Thumb Code     0  entry10a.o(.ARM.Collect$$$$0000000D)
    __rt_final_exit                          0x080000fd   Thumb Code     0  entry11a.o(.ARM.Collect$$$$0000000F)
    Reset_Handler                            0x08000101   Thumb Code     8  startup_stm32f103xb.o(.text)
    ADC1_2_IRQHandler                        0x0800011b   Thumb Code     0  startup_stm32f103xb.o(.text)
    CAN1_RX1_IRQHandler                      0x0800011b   Thumb Code     0  startup_stm32f103xb.o(.text)
    CAN1_SCE_IRQHandler                      0x0800011b   Thumb Code     0  startup_stm32f103xb.o(.text)
    DMA1_Channel1_IRQHandler                 0x0800011b   Thumb Code     0  startup_stm32f103xb.o(.text)
    DMA1_Channel2_IRQHandler                 0x0800011b   Thumb Code     0  startup_stm32f103xb.o(.text)
    DMA1_Channel3_IRQHandler                 0x0800011b   Thumb Code     0  startup_stm32f103xb.o(.text)
    DMA1_Channel4_IRQHandler                 0x0800011b   Thumb Code     0  startup_stm32f103xb.o(.text)
    DMA1_Channel5_IRQHandler                 0x0800011b   Thumb Code     0  startup_stm32f103xb.o(.text)
    DMA1_Channel6_IRQHandler                 0x0800011b   Thumb Code     0  startup_stm32f103xb.o(.text)
    DMA1_Channel7_IRQHandler                 0x0800011b   Thumb Code     0  startup_stm32f103xb.o(.text)
    EXTI0_IRQHandler                         0x0800011b   Thumb Code     0  startup_stm32f103xb.o(.text)
    EXTI15_10_IRQHandler                     0x0800011b   Thumb Code     0  startup_stm32f103xb.o(.text)
    EXTI1_IRQHandler                         0x0800011b   Thumb Code     0  startup_stm32f103xb.o(.text)
    EXTI2_IRQHandler                         0x0800011b   Thumb Code     0  startup_stm32f103xb.o(.text)
    EXTI3_IRQHandler                         0x0800011b   Thumb Code     0  startup_stm32f103xb.o(.text)
    EXTI4_IRQHandler                         0x0800011b   Thumb Code     0  startup_stm32f103xb.o(.text)
    EXTI9_5_IRQHandler                       0x0800011b   Thumb Code     0  startup_stm32f103xb.o(.text)
    FLASH_IRQHandler                         0x0800011b   Thumb Code     0  startup_stm32f103xb.o(.text)
    I2C1_ER_IRQHandler                       0x0800011b   Thumb Code     0  startup_stm32f103xb.o(.text)
    I2C1_EV_IRQHandler                       0x0800011b   Thumb Code     0  startup_stm32f103xb.o(.text)
    I2C2_ER_IRQHandler                       0x0800011b   Thumb Code     0  startup_stm32f103xb.o(.text)
    I2C2_EV_IRQHandler                       0x0800011b   Thumb Code     0  startup_stm32f103xb.o(.text)
    PVD_IRQHandler                           0x0800011b   Thumb Code     0  startup_stm32f103xb.o(.text)
    RCC_IRQHandler                           0x0800011b   Thumb Code     0  startup_stm32f103xb.o(.text)
    RTC_Alarm_IRQHandler                     0x0800011b   Thumb Code     0  startup_stm32f103xb.o(.text)
    RTC_IRQHandler                           0x0800011b   Thumb Code     0  startup_stm32f103xb.o(.text)
    SPI1_IRQHandler                          0x0800011b   Thumb Code     0  startup_stm32f103xb.o(.text)
    SPI2_IRQHandler                          0x0800011b   Thumb Code     0  startup_stm32f103xb.o(.text)
    TAMPER_IRQHandler                        0x0800011b   Thumb Code     0  startup_stm32f103xb.o(.text)
    TIM1_BRK_IRQHandler                      0x0800011b   Thumb Code     0  startup_stm32f103xb.o(.text)
    TIM1_CC_IRQHandler                       0x0800011b   Thumb Code     0  startup_stm32f103xb.o(.text)
    TIM1_TRG_COM_IRQHandler                  0x0800011b   Thumb Code     0  startup_stm32f103xb.o(.text)
    USART1_IRQHandler                        0x0800011b   Thumb Code     0  startup_stm32f103xb.o(.text)
    USART2_IRQHandler                        0x0800011b   Thumb Code     0  startup_stm32f103xb.o(.text)
    USART3_IRQHandler                        0x0800011b   Thumb Code     0  startup_stm32f103xb.o(.text)
    USBWakeUp_IRQHandler                     0x0800011b   Thumb Code     0  startup_stm32f103xb.o(.text)
    USB_HP_CAN1_TX_IRQHandler                0x0800011b   Thumb Code     0  startup_stm32f103xb.o(.text)
    USB_LP_CAN1_RX0_IRQHandler               0x0800011b   Thumb Code     0  startup_stm32f103xb.o(.text)
    WWDG_IRQHandler                          0x0800011b   Thumb Code     0  startup_stm32f103xb.o(.text)
    __aeabi_llsr                             0x08000125   Thumb Code    32  llushr.o(.text)
    _ll_ushift_r                             0x08000125   Thumb Code     0  llushr.o(.text)
    __aeabi_memset                           0x08000145   Thumb Code    14  memseta.o(.text)
    __aeabi_memset4                          0x08000145   Thumb Code     0  memseta.o(.text)
    __aeabi_memset8                          0x08000145   Thumb Code     0  memseta.o(.text)
    __aeabi_memclr                           0x08000153   Thumb Code     4  memseta.o(.text)
    __aeabi_memclr4                          0x08000153   Thumb Code     0  memseta.o(.text)
    __aeabi_memclr8                          0x08000153   Thumb Code     0  memseta.o(.text)
    _memset$wrapper                          0x08000157   Thumb Code    18  memseta.o(.text)
    __aeabi_fadd                             0x08000169   Thumb Code   164  fadd.o(.text)
    __aeabi_fsub                             0x0800020d   Thumb Code     6  fadd.o(.text)
    __aeabi_frsub                            0x08000213   Thumb Code     6  fadd.o(.text)
    __aeabi_fmul                             0x08000219   Thumb Code   100  fmul.o(.text)
    __aeabi_fdiv                             0x0800027d   Thumb Code   124  fdiv.o(.text)
    __aeabi_dadd                             0x080002f9   Thumb Code   322  dadd.o(.text)
    __aeabi_dsub                             0x0800043b   Thumb Code     6  dadd.o(.text)
    __aeabi_drsub                            0x08000441   Thumb Code     6  dadd.o(.text)
    __aeabi_dmul                             0x08000447   Thumb Code   228  dmul.o(.text)
    __aeabi_ddiv                             0x0800052b   Thumb Code   222  ddiv.o(.text)
    __aeabi_i2f                              0x08000609   Thumb Code    18  fflti.o(.text)
    __aeabi_ui2f                             0x0800061b   Thumb Code    10  ffltui.o(.text)
    __aeabi_i2d                              0x08000625   Thumb Code    34  dflti.o(.text)
    __aeabi_f2iz                             0x08000647   Thumb Code    50  ffixi.o(.text)
    __aeabi_f2uiz                            0x08000679   Thumb Code    40  ffixui.o(.text)
    __aeabi_d2iz                             0x080006a1   Thumb Code    62  dfixi.o(.text)
    __aeabi_f2d                              0x080006df   Thumb Code    38  f2d.o(.text)
    __aeabi_cdcmpeq                          0x08000705   Thumb Code     0  cdcmple.o(.text)
    __aeabi_cdcmple                          0x08000705   Thumb Code    48  cdcmple.o(.text)
    __aeabi_cdrcmple                         0x08000735   Thumb Code    48  cdrcmple.o(.text)
    __aeabi_d2f                              0x08000765   Thumb Code    56  d2f.o(.text)
    __aeabi_cfcmpeq                          0x0800079d   Thumb Code     0  cfcmple.o(.text)
    __aeabi_cfcmple                          0x0800079d   Thumb Code    20  cfcmple.o(.text)
    __aeabi_cfrcmple                         0x080007b1   Thumb Code    20  cfrcmple.o(.text)
    __aeabi_llsl                             0x080007c5   Thumb Code    30  llshl.o(.text)
    _ll_shift_l                              0x080007c5   Thumb Code     0  llshl.o(.text)
    __aeabi_lasr                             0x080007e3   Thumb Code    36  llsshr.o(.text)
    _ll_sshift_r                             0x080007e3   Thumb Code     0  llsshr.o(.text)
    __I$use$fp                               0x08000807   Thumb Code     0  iusefp.o(.text)
    _float_round                             0x08000807   Thumb Code    18  fepilogue.o(.text)
    _float_epilogue                          0x08000819   Thumb Code    92  fepilogue.o(.text)
    _double_round                            0x08000875   Thumb Code    30  depilogue.o(.text)
    _double_epilogue                         0x08000893   Thumb Code   156  depilogue.o(.text)
    _dsqrt                                   0x0800092f   Thumb Code   162  dsqrt.o(.text)
    _drem                                    0x080009d1   Thumb Code   134  drem.o(.text)
    __scatterload                            0x08000a59   Thumb Code    28  init.o(.text)
    __scatterload_rt2                        0x08000a59   Thumb Code     0  init.o(.text)
    __ARM_scalbn                             0x08000a7d   Thumb Code    46  dscalb.o(.text)
    scalbn                                   0x08000a7d   Thumb Code     0  dscalb.o(.text)
    __aeabi_ui2d                             0x08000aab   Thumb Code    26  dfltui.o(.text)
    __decompress                             0x08000ac5   Thumb Code     0  __dczerorl.o(.text)
    __decompress0                            0x08000ac5   Thumb Code    58  __dczerorl.o(.text)
    BusFault_Handler                         0x08000aff   Thumb Code     4  stm32f1xx_it.o(i.BusFault_Handler)
    DFOC_M0_ANGLE_PID                        0x08000b05   Thumb Code    14  dengfoc.o(i.DFOC_M0_ANGLE_PID)
    DFOC_M0_Angle                            0x08000b19   Thumb Code    34  dengfoc.o(i.DFOC_M0_Angle)
    DFOC_M0_VEL_PID                          0x08000b45   Thumb Code    14  dengfoc.o(i.DFOC_M0_VEL_PID)
    DFOC_M0_Velocity                         0x08000b59   Thumb Code    50  dengfoc.o(i.DFOC_M0_Velocity)
    DFOC_M0_alignSensor                      0x08000b9d   Thumb Code    70  dengfoc.o(i.DFOC_M0_alignSensor)
    DFOC_M0_setTorque                        0x08000c01   Thumb Code    20  dengfoc.o(i.DFOC_M0_setTorque)
    DFOC_M0_set_Velocity_Angle               0x08000c15   Thumb Code    88  dengfoc.o(i.DFOC_M0_set_Velocity_Angle)
    DebugMon_Handler                         0x08000c79   Thumb Code     2  stm32f1xx_it.o(i.DebugMon_Handler)
    Error_Handler                            0x08000c7b   Thumb Code     6  main.o(i.Error_Handler)
    FLASH_WaitForLastOperation               0x08000d25   Thumb Code   106  stm32f1xx_hal_flash.o(i.FLASH_WaitForLastOperation)
    Flash_PageErase                          0x08000d95   Thumb Code    32  stmflash.o(i.Flash_PageErase)
    HAL_Delay                                0x08000dbd   Thumb Code    36  stm32f1xx_hal.o(i.HAL_Delay)
    HAL_FLASH_Lock                           0x08000de5   Thumb Code    16  stm32f1xx_hal_flash.o(i.HAL_FLASH_Lock)
    HAL_FLASH_Program                        0x08000df9   Thumb Code   168  stm32f1xx_hal_flash.o(i.HAL_FLASH_Program)
    HAL_FLASH_Unlock                         0x08000ea9   Thumb Code    36  stm32f1xx_hal_flash.o(i.HAL_FLASH_Unlock)
    HAL_GPIO_Init                            0x08000ed9   Thumb Code   766  stm32f1xx_hal_gpio.o(i.HAL_GPIO_Init)
    HAL_GPIO_ReadPin                         0x080011f9   Thumb Code    16  stm32f1xx_hal_gpio.o(i.HAL_GPIO_ReadPin)
    HAL_GPIO_WritePin                        0x08001209   Thumb Code    12  stm32f1xx_hal_gpio.o(i.HAL_GPIO_WritePin)
    HAL_GetTick                              0x08001215   Thumb Code     6  stm32f1xx_hal.o(i.HAL_GetTick)
    HAL_IncTick                              0x08001221   Thumb Code    16  stm32f1xx_hal.o(i.HAL_IncTick)
    HAL_Init                                 0x08001239   Thumb Code    34  stm32f1xx_hal.o(i.HAL_Init)
    HAL_InitTick                             0x08001261   Thumb Code    64  stm32f1xx_hal.o(i.HAL_InitTick)
    HAL_MspInit                              0x080012ad   Thumb Code    76  stm32f1xx_hal_msp.o(i.HAL_MspInit)
    HAL_NVIC_EnableIRQ                       0x08001301   Thumb Code    32  stm32f1xx_hal_cortex.o(i.HAL_NVIC_EnableIRQ)
    HAL_NVIC_SetPriority                     0x08001321   Thumb Code   124  stm32f1xx_hal_cortex.o(i.HAL_NVIC_SetPriority)
    HAL_NVIC_SetPriorityGrouping             0x0800139d   Thumb Code    32  stm32f1xx_hal_cortex.o(i.HAL_NVIC_SetPriorityGrouping)
    HAL_RCC_ClockConfig                      0x080013c5   Thumb Code   376  stm32f1xx_hal_rcc.o(i.HAL_RCC_ClockConfig)
    HAL_RCC_GetHCLKFreq                      0x08001551   Thumb Code     6  stm32f1xx_hal_rcc.o(i.HAL_RCC_GetHCLKFreq)
    HAL_RCC_GetPCLK1Freq                     0x0800155d   Thumb Code    22  stm32f1xx_hal_rcc.o(i.HAL_RCC_GetPCLK1Freq)
    HAL_RCC_GetPCLK2Freq                     0x0800157d   Thumb Code    22  stm32f1xx_hal_rcc.o(i.HAL_RCC_GetPCLK2Freq)
    HAL_RCC_GetSysClockFreq                  0x0800159d   Thumb Code    92  stm32f1xx_hal_rcc.o(i.HAL_RCC_GetSysClockFreq)
    HAL_RCC_OscConfig                        0x0800160d   Thumb Code  1114  stm32f1xx_hal_rcc.o(i.HAL_RCC_OscConfig)
    HAL_SYSTICK_Config                       0x08001a71   Thumb Code    52  stm32f1xx_hal_cortex.o(i.HAL_SYSTICK_Config)
    HAL_TIMEx_BreakCallback                  0x08001aa5   Thumb Code     2  stm32f1xx_hal_tim_ex.o(i.HAL_TIMEx_BreakCallback)
    HAL_TIMEx_CommutCallback                 0x08001aa7   Thumb Code     2  stm32f1xx_hal_tim_ex.o(i.HAL_TIMEx_CommutCallback)
    HAL_TIMEx_ConfigBreakDeadTime            0x08001aa9   Thumb Code   116  stm32f1xx_hal_tim_ex.o(i.HAL_TIMEx_ConfigBreakDeadTime)
    HAL_TIMEx_MasterConfigSynchronization    0x08001b1d   Thumb Code   118  stm32f1xx_hal_tim_ex.o(i.HAL_TIMEx_MasterConfigSynchronization)
    HAL_TIM_Base_Init                        0x08001ba1   Thumb Code   102  stm32f1xx_hal_tim.o(i.HAL_TIM_Base_Init)
    HAL_TIM_Base_MspInit                     0x08001c09   Thumb Code   418  tim.o(i.HAL_TIM_Base_MspInit)
    HAL_TIM_ConfigClockSource                0x08001dc9   Thumb Code   268  stm32f1xx_hal_tim.o(i.HAL_TIM_ConfigClockSource)
    HAL_TIM_IC_CaptureCallback               0x08001ed5   Thumb Code   460  main.o(i.HAL_TIM_IC_CaptureCallback)
    HAL_TIM_IC_ConfigChannel                 0x080020d5   Thumb Code   222  stm32f1xx_hal_tim.o(i.HAL_TIM_IC_ConfigChannel)
    HAL_TIM_IC_Init                          0x080021b3   Thumb Code   102  stm32f1xx_hal_tim.o(i.HAL_TIM_IC_Init)
    HAL_TIM_IC_MspInit                       0x08002219   Thumb Code     2  stm32f1xx_hal_tim.o(i.HAL_TIM_IC_MspInit)
    HAL_TIM_IC_Start_IT                      0x0800221d   Thumb Code   340  stm32f1xx_hal_tim.o(i.HAL_TIM_IC_Start_IT)
    HAL_TIM_IRQHandler                       0x0800237d   Thumb Code   364  stm32f1xx_hal_tim.o(i.HAL_TIM_IRQHandler)
    HAL_TIM_MspPostInit                      0x080024e9   Thumb Code    76  tim.o(i.HAL_TIM_MspPostInit)
    HAL_TIM_OC_DelayElapsedCallback          0x08002541   Thumb Code     2  stm32f1xx_hal_tim.o(i.HAL_TIM_OC_DelayElapsedCallback)
    HAL_TIM_PWM_ConfigChannel                0x08002543   Thumb Code   260  stm32f1xx_hal_tim.o(i.HAL_TIM_PWM_ConfigChannel)
    HAL_TIM_PWM_Init                         0x08002647   Thumb Code   102  stm32f1xx_hal_tim.o(i.HAL_TIM_PWM_Init)
    HAL_TIM_PWM_MspInit                      0x080026ad   Thumb Code     2  stm32f1xx_hal_tim.o(i.HAL_TIM_PWM_MspInit)
    HAL_TIM_PWM_PulseFinishedCallback        0x080026af   Thumb Code     2  stm32f1xx_hal_tim.o(i.HAL_TIM_PWM_PulseFinishedCallback)
    HAL_TIM_PWM_Start                        0x080026b1   Thumb Code   198  stm32f1xx_hal_tim.o(i.HAL_TIM_PWM_Start)
    HAL_TIM_PeriodElapsedCallback            0x08002785   Thumb Code    14  main.o(i.HAL_TIM_PeriodElapsedCallback)
    HAL_TIM_ReadCapturedValue                0x08002799   Thumb Code    50  stm32f1xx_hal_tim.o(i.HAL_TIM_ReadCapturedValue)
    HAL_TIM_SlaveConfigSynchro               0x080027cb   Thumb Code   108  stm32f1xx_hal_tim.o(i.HAL_TIM_SlaveConfigSynchro)
    HAL_TIM_TriggerCallback                  0x08002837   Thumb Code     2  stm32f1xx_hal_tim.o(i.HAL_TIM_TriggerCallback)
    HAL_UART_Init                            0x08002839   Thumb Code   118  stm32f1xx_hal_uart.o(i.HAL_UART_Init)
    HAL_UART_MspInit                         0x080028b1   Thumb Code   120  usart.o(i.HAL_UART_MspInit)
    HardFault_Handler                        0x08002935   Thumb Code     4  stm32f1xx_it.o(i.HardFault_Handler)
    IIC_Ack                                  0x08002939   Thumb Code    62  softi2c.o(i.IIC_Ack)
    IIC_NAck                                 0x0800297d   Thumb Code    60  softi2c.o(i.IIC_NAck)
    IIC_Read_Byte                            0x080029bd   Thumb Code    96  softi2c.o(i.IIC_Read_Byte)
    IIC_Send_Byte                            0x08002a21   Thumb Code   102  softi2c.o(i.IIC_Send_Byte)
    IIC_Start                                0x08002a8d   Thumb Code    60  softi2c.o(i.IIC_Start)
    IIC_Stop                                 0x08002acd   Thumb Code    60  softi2c.o(i.IIC_Stop)
    IIC_Wait_Ack                             0x08002b0d   Thumb Code    92  softi2c.o(i.IIC_Wait_Ack)
    LowPassFilter_Init                       0x08002b6d   Thumb Code     8  lowpass_filter.o(i.LowPassFilter_Init)
    LowPassFilter_Update                     0x08002b75   Thumb Code    56  lowpass_filter.o(i.LowPassFilter_Update)
    M0_setPwm                                0x08002bb1   Thumb Code   388  dengfoc.o(i.M0_setPwm)
    M0_setTorque                             0x08002d4d   Thumb Code   854  dengfoc.o(i.M0_setTorque)
    MX_GPIO_Init                             0x080030c5   Thumb Code   182  gpio.o(i.MX_GPIO_Init)
    MX_TIM1_Init                             0x08003189   Thumb Code   242  tim.o(i.MX_TIM1_Init)
    MX_TIM2_Init                             0x08003285   Thumb Code   220  tim.o(i.MX_TIM2_Init)
    MX_TIM3_Init                             0x08003365   Thumb Code   216  tim.o(i.MX_TIM3_Init)
    MX_TIM4_Init                             0x08003445   Thumb Code   216  tim.o(i.MX_TIM4_Init)
    MX_USART2_UART_Init                      0x08003525   Thumb Code    46  usart.o(i.MX_USART2_UART_Init)
    MemManage_Handler                        0x0800355d   Thumb Code     4  stm32f1xx_it.o(i.MemManage_Handler)
    NMI_Handler                              0x08003561   Thumb Code     4  stm32f1xx_it.o(i.NMI_Handler)
    PID_Init                                 0x08003565   Thumb Code    26  pid.o(i.PID_Init)
    PID_Update                               0x0800357f   Thumb Code   128  pid.o(i.PID_Update)
    PendSV_Handler                           0x080035ff   Thumb Code     2  stm32f1xx_it.o(i.PendSV_Handler)
    S0_electricalAngle                       0x08003629   Thumb Code    56  dengfoc.o(i.S0_electricalAngle)
    SDA_IN                                   0x0800366d   Thumb Code    38  softi2c.o(i.SDA_IN)
    SDA_OUT                                  0x08003699   Thumb Code    40  softi2c.o(i.SDA_OUT)
    STMFLASH_Read                            0x080036c5   Thumb Code    34  stmflash.o(i.STMFLASH_Read)
    STMFLASH_ReadHalfWord                    0x080036e7   Thumb Code     6  stmflash.o(i.STMFLASH_ReadHalfWord)
    STMFLASH_Write                           0x080036ed   Thumb Code   252  stmflash.o(i.STMFLASH_Write)
    STMFLASH_Write_NoCheck                   0x080037f5   Thumb Code    44  stmflash.o(i.STMFLASH_Write_NoCheck)
    SVC_Handler                              0x08003821   Thumb Code     2  stm32f1xx_it.o(i.SVC_Handler)
    Sensor_update                            0x08003825   Thumb Code    96  as5600.o(i.Sensor_update)
    SysTick_Handler                          0x08003895   Thumb Code    12  stm32f1xx_it.o(i.SysTick_Handler)
    SysTick_callback                         0x080038a1   Thumb Code  1080  main.o(i.SysTick_callback)
    SystemClock_Config                       0x08003cd9   Thumb Code    98  main.o(i.SystemClock_Config)
    SystemInit                               0x08003d3b   Thumb Code     2  system_stm32f1xx.o(i.SystemInit)
    TIM1_UP_IRQHandler                       0x08003d3d   Thumb Code    10  stm32f1xx_it.o(i.TIM1_UP_IRQHandler)
    TIM2_IRQHandler                          0x08003d4d   Thumb Code    10  stm32f1xx_it.o(i.TIM2_IRQHandler)
    TIM3_IRQHandler                          0x08003d5d   Thumb Code    10  stm32f1xx_it.o(i.TIM3_IRQHandler)
    TIM4_IRQHandler                          0x08003d6d   Thumb Code    10  stm32f1xx_it.o(i.TIM4_IRQHandler)
    TIM_Base_SetConfig                       0x08003d7d   Thumb Code   120  stm32f1xx_hal_tim.o(i.TIM_Base_SetConfig)
    TIM_CCxChannelCmd                        0x08003e01   Thumb Code    34  stm32f1xx_hal_tim.o(i.TIM_CCxChannelCmd)
    TIM_ETR_SetConfig                        0x08003e23   Thumb Code    22  stm32f1xx_hal_tim.o(i.TIM_ETR_SetConfig)
    TIM_OC2_SetConfig                        0x08003ead   Thumb Code   100  stm32f1xx_hal_tim.o(i.TIM_OC2_SetConfig)
    TIM_TI1_SetConfig                        0x0800409d   Thumb Code    90  stm32f1xx_hal_tim.o(i.TIM_TI1_SetConfig)
    UsageFault_Handler                       0x080042d9   Thumb Code     4  stm32f1xx_it.o(i.UsageFault_Handler)
    __ARM_fpclassify                         0x080042dd   Thumb Code    40  fpclassify.o(i.__ARM_fpclassify)
    __ieee754_rem_pio2                       0x0800433d   Thumb Code   828  rred.o(i.__ieee754_rem_pio2)
    __kernel_cos                             0x080046c5   Thumb Code   230  cos_i.o(i.__kernel_cos)
    __kernel_poly                            0x080047c1   Thumb Code   170  poly.o(i.__kernel_poly)
    __kernel_sin                             0x0800486d   Thumb Code   224  sin_i.o(i.__kernel_sin)
    __mathlib_dbl_infnan                     0x08004959   Thumb Code     6  dunder.o(i.__mathlib_dbl_infnan)
    __mathlib_dbl_invalid                    0x0800495f   Thumb Code    12  dunder.o(i.__mathlib_dbl_invalid)
    __mathlib_dbl_underflow                  0x0800496d   Thumb Code    10  dunder.o(i.__mathlib_dbl_underflow)
    __scatterload_copy                       0x0800497d   Thumb Code    14  handlers.o(i.__scatterload_copy)
    __scatterload_null                       0x0800498b   Thumb Code     2  handlers.o(i.__scatterload_null)
    __scatterload_zeroinit                   0x0800498d   Thumb Code    14  handlers.o(i.__scatterload_zeroinit)
    __set_errno                              0x0800499d   Thumb Code     6  errno.o(i.__set_errno)
    _normalizeAngle                          0x080049a9   Thumb Code    58  dengfoc.o(i._normalizeAngle)
    bsp_as5600GetRawAngle                    0x080049ed   Thumb Code    68  as5600.o(i.bsp_as5600GetRawAngle)
    cos                                      0x08004a31   Thumb Code   148  cos.o(i.cos)
    delay_s                                  0x08004acd   Thumb Code    12  softi2c.o(i.delay_s)
    floor                                    0x08004ad9   Thumb Code   204  floor.o(i.floor)
    fmod                                     0x08004bb5   Thumb Code   144  fmod.o(i.fmod)
    getAngle                                 0x08004c49   Thumb Code    32  as5600.o(i.getAngle)
    getMechanicalAngle                       0x08004c75   Thumb Code     6  as5600.o(i.getMechanicalAngle)
    getSensorAngle                           0x08004c81   Thumb Code    44  as5600.o(i.getSensorAngle)
    getVelocity                              0x08004cb5   Thumb Code   142  as5600.o(i.getVelocity)
    main                                     0x08004d79   Thumb Code   912  main.o(i.main)
    scale_to_range                           0x0800518d   Thumb Code    30  main.o(i.scale_to_range)
    setTorque                                0x080051ad   Thumb Code   484  dengfoc.o(i.setTorque)
    sin                                      0x080053ad   Thumb Code   150  sin.o(i.sin)
    sqrt                                     0x0800544d   Thumb Code    76  sqrt.o(i.sqrt)
    AHBPrescTable                            0x080054aa   Data          16  system_stm32f1xx.o(.constdata)
    APBPrescTable                            0x080054ba   Data           8  system_stm32f1xx.o(.constdata)
    Region$$Table$$Base                      0x080055e8   Number         0  anon$$obj.o(Region$$Table)
    Region$$Table$$Limit                     0x08005608   Number         0  anon$$obj.o(Region$$Table)
    full_rotation_offset                     0x20000004   Data           4  as5600.o(.data)
    cpr                                      0x20000008   Data           4  as5600.o(.data)
    velocity_calc_timestamp                  0x2000000c   Data           4  as5600.o(.data)
    _Mot_Num                                 0x20000010   Data           4  as5600.o(.data)
    angle_prev                               0x20000014   Data           4  as5600.o(.data)
    angle_prev_ts                            0x20000018   Data           8  as5600.o(.data)
    vel_angle_prev                           0x20000020   Data           4  as5600.o(.data)
    vel_angle_prev_ts                        0x20000028   Data           8  as5600.o(.data)
    full_rotations                           0x20000030   Data           4  as5600.o(.data)
    vel_full_rotations                       0x20000034   Data           4  as5600.o(.data)
    rawdata                                  0x20000038   Data           2  as5600.o(.data)
    vel                                      0x2000003c   Data           4  as5600.o(.data)
    difftest                                 0x20000040   Data           4  as5600.o(.data)
    readValue                                0x20000044   Data           2  as5600.o(.data)
    t1                                       0x20000048   Data           4  as5600.o(.data)
    t2                                       0x2000004c   Data           4  as5600.o(.data)
    t3                                       0x20000050   Data           4  as5600.o(.data)
    t4                                       0x20000054   Data           4  as5600.o(.data)
    t5                                       0x20000058   Data           4  as5600.o(.data)
    t6                                       0x2000005c   Data           4  as5600.o(.data)
    t7                                       0x20000060   Data           4  as5600.o(.data)
    val                                      0x20000064   Data           4  as5600.o(.data)
    voltage_power_supply                     0x20000068   Data           4  dengfoc.o(.data)
    S0_zero_electric_angle                   0x2000006c   Data           4  dengfoc.o(.data)
    M0_PP                                    0x20000070   Data           4  dengfoc.o(.data)
    M0_DIR                                   0x20000074   Data           4  dengfoc.o(.data)
    M0_pwmA                                  0x20000078   Data           4  dengfoc.o(.data)
    M0_pwmB                                  0x2000007c   Data           4  dengfoc.o(.data)
    M0_pwmC                                  0x20000080   Data           4  dengfoc.o(.data)
    enable                                   0x20000084   Data           4  dengfoc.o(.data)
    uaa                                      0x20000088   Data           4  dengfoc.o(.data)
    ubb                                      0x2000008c   Data           4  dengfoc.o(.data)
    ucc                                      0x20000090   Data           4  dengfoc.o(.data)
    Ualpha                                   0x20000094   Data           4  dengfoc.o(.data)
    Ubeta                                    0x20000098   Data           4  dengfoc.o(.data)
    Ua                                       0x2000009c   Data           4  dengfoc.o(.data)
    Ub                                       0x200000a0   Data           4  dengfoc.o(.data)
    Uc                                       0x200000a4   Data           4  dengfoc.o(.data)
    sector                                   0x200000a8   Data           4  dengfoc.o(.data)
    timenow                                  0x200000ac   Data           4  dengfoc.o(.data)
    testdata1                                0x200000b0   Data           4  dengfoc.o(.data)
    vel_M0_flit                              0x200000b4   Data           4  dengfoc.o(.data)
    vel_M0_ori                               0x200000b8   Data           4  dengfoc.o(.data)
    count_2s                                 0x200000c0   Data           4  main.o(.data)
    Sensor_DIR                               0x200000c4   Data           4  main.o(.data)
    Motor_PP                                 0x200000c8   Data           4  main.o(.data)
    testdata                                 0x200000cc   Data           4  main.o(.data)
    angleraw                                 0x200000d0   Data           8  main.o(.data)
    timetest                                 0x200000d8   Data           4  main.o(.data)
    temp                                     0x200000dc   Data           2  main.o(.data)
    in_angle                                 0x200000de   Data           2  main.o(.data)
    angle_d                                  0x200000e0   Data           4  main.o(.data)
    targetangle                              0x200000e4   Data           4  main.o(.data)
    targetspeed                              0x200000e8   Data           4  main.o(.data)
    current_time                             0x200000ec   Data           4  main.o(.data)
    vel_time_prev                            0x200000f0   Data           4  main.o(.data)
    cal_sys_time                             0x200000f4   Data           4  main.o(.data)
    keyflag                                  0x200000f8   Data           4  main.o(.data)
    keyflagLast                              0x200000fc   Data           4  main.o(.data)
    speedts                                  0x20000100   Data           4  main.o(.data)
    pidts                                    0x20000104   Data           4  main.o(.data)
    motState                                 0x20000108   Data           1  main.o(.data)
    speed_cout                               0x2000010c   Data           4  main.o(.data)
    speedfin                                 0x20000110   Data           4  main.o(.data)
    hightimerecord                           0x20000114   Data           4  main.o(.data)
    periodtimerecord                         0x20000118   Data           4  main.o(.data)
    ch0_duty_cycle_tmp_debug                 0x2000011c   Data           4  main.o(.data)
    ch1_duty_cycle_tmp_debug                 0x20000120   Data           4  main.o(.data)
    ch2_duty_cycle_tmp_debug                 0x20000124   Data           4  main.o(.data)
    ch0_value_debug                          0x20000128   Data           4  main.o(.data)
    ch1_value_debug                          0x2000012c   Data           4  main.o(.data)
    ch2_value_debug                          0x20000130   Data           4  main.o(.data)
    ch0_pwm_duty_debug                       0x20000134   Data           4  main.o(.data)
    ch1_pwm_duty_debug                       0x20000138   Data           4  main.o(.data)
    ch2_pwm_duty_debug                       0x2000013c   Data           4  main.o(.data)
    uwTick                                   0x20000140   Data           4  stm32f1xx_hal.o(.data)
    uwTickPrio                               0x20000144   Data           4  stm32f1xx_hal.o(.data)
    uwTickFreq                               0x20000148   Data           1  stm32f1xx_hal.o(.data)
    SystemCoreClock                          0x2000014c   Data           4  system_stm32f1xx.o(.data)
    M0_Vel_Flt                               0x20000154   Data          12  dengfoc.o(.bss)
    vel_loop_M0                              0x20000160   Data          56  dengfoc.o(.bss)
    angle_loop_M0                            0x20000198   Data          56  dengfoc.o(.bss)
    p_Flash                                  0x200001d0   Data          32  stmflash.o(.bss)
    STMFLASH_BUF                             0x200001f0   Data        1024  stmflash.o(.bss)
    CH                                       0x200005f0   Data         264  main.o(.bss)
    MOTOR                                    0x200006f8   Data          80  main.o(.bss)
    htim1                                    0x20000748   Data          72  tim.o(.bss)
    htim2                                    0x20000790   Data          72  tim.o(.bss)
    htim3                                    0x200007d8   Data          72  tim.o(.bss)
    htim4                                    0x20000820   Data          72  tim.o(.bss)
    huart2                                   0x20000868   Data          72  usart.o(.bss)
    pFlash                                   0x200008b0   Data          32  stm32f1xx_hal_flash.o(.bss)
    __initial_sp                             0x20000cd0   Data           0  startup_stm32f103xb.o(STACK)



==============================================================================

Memory Map of the image

  Image Entry point : 0x080000ed

  Load Region LR_IROM1 (Base: 0x08000000, Size: 0x0000575c, Max: 0x00010000, ABSOLUTE, COMPRESSED[0x0000562c])

    Execution Region ER_IROM1 (Base: 0x08000000, Size: 0x00005608, Max: 0x00010000, ABSOLUTE)

    Base Addr    Size         Type   Attr      Idx    E Section Name        Object

    0x08000000   0x000000ec   Data   RO            3    RESET               startup_stm32f103xb.o
    0x080000ec   0x00000000   Code   RO         3317  * .ARM.Collect$$$$00000000  mc_w.l(entry.o)
    0x080000ec   0x00000004   Code   RO         3388    .ARM.Collect$$$$00000001  mc_w.l(entry2.o)
    0x080000f0   0x00000004   Code   RO         3391    .ARM.Collect$$$$00000004  mc_w.l(entry5.o)
    0x080000f4   0x00000000   Code   RO         3393    .ARM.Collect$$$$00000008  mc_w.l(entry7b.o)
    0x080000f4   0x00000000   Code   RO         3395    .ARM.Collect$$$$0000000A  mc_w.l(entry8b.o)
    0x080000f4   0x00000008   Code   RO         3396    .ARM.Collect$$$$0000000B  mc_w.l(entry9a.o)
    0x080000fc   0x00000000   Code   RO         3398    .ARM.Collect$$$$0000000D  mc_w.l(entry10a.o)
    0x080000fc   0x00000000   Code   RO         3400    .ARM.Collect$$$$0000000F  mc_w.l(entry11a.o)
    0x080000fc   0x00000004   Code   RO         3389    .ARM.Collect$$$$00002712  mc_w.l(entry2.o)
    0x08000100   0x00000024   Code   RO            4    .text               startup_stm32f103xb.o
    0x08000124   0x00000020   Code   RO         3320    .text               mc_w.l(llushr.o)
    0x08000144   0x00000024   Code   RO         3322    .text               mc_w.l(memseta.o)
    0x08000168   0x000000b0   Code   RO         3324    .text               mf_w.l(fadd.o)
    0x08000218   0x00000064   Code   RO         3326    .text               mf_w.l(fmul.o)
    0x0800027c   0x0000007c   Code   RO         3328    .text               mf_w.l(fdiv.o)
    0x080002f8   0x0000014e   Code   RO         3330    .text               mf_w.l(dadd.o)
    0x08000446   0x000000e4   Code   RO         3332    .text               mf_w.l(dmul.o)
    0x0800052a   0x000000de   Code   RO         3334    .text               mf_w.l(ddiv.o)
    0x08000608   0x00000012   Code   RO         3336    .text               mf_w.l(fflti.o)
    0x0800061a   0x0000000a   Code   RO         3338    .text               mf_w.l(ffltui.o)
    0x08000624   0x00000022   Code   RO         3340    .text               mf_w.l(dflti.o)
    0x08000646   0x00000032   Code   RO         3342    .text               mf_w.l(ffixi.o)
    0x08000678   0x00000028   Code   RO         3344    .text               mf_w.l(ffixui.o)
    0x080006a0   0x0000003e   Code   RO         3346    .text               mf_w.l(dfixi.o)
    0x080006de   0x00000026   Code   RO         3348    .text               mf_w.l(f2d.o)
    0x08000704   0x00000030   Code   RO         3350    .text               mf_w.l(cdcmple.o)
    0x08000734   0x00000030   Code   RO         3352    .text               mf_w.l(cdrcmple.o)
    0x08000764   0x00000038   Code   RO         3354    .text               mf_w.l(d2f.o)
    0x0800079c   0x00000014   Code   RO         3356    .text               mf_w.l(cfcmple.o)
    0x080007b0   0x00000014   Code   RO         3358    .text               mf_w.l(cfrcmple.o)
    0x080007c4   0x0000001e   Code   RO         3402    .text               mc_w.l(llshl.o)
    0x080007e2   0x00000024   Code   RO         3404    .text               mc_w.l(llsshr.o)
    0x08000806   0x00000000   Code   RO         3413    .text               mc_w.l(iusefp.o)
    0x08000806   0x0000006e   Code   RO         3414    .text               mf_w.l(fepilogue.o)
    0x08000874   0x000000ba   Code   RO         3416    .text               mf_w.l(depilogue.o)
    0x0800092e   0x000000a2   Code   RO         3418    .text               mf_w.l(dsqrt.o)
    0x080009d0   0x00000086   Code   RO         3420    .text               mf_w.l(drem.o)
    0x08000a56   0x00000002   PAD
    0x08000a58   0x00000024   Code   RO         3426    .text               mc_w.l(init.o)
    0x08000a7c   0x0000002e   Code   RO         3428    .text               mf_w.l(dscalb.o)
    0x08000aaa   0x0000001a   Code   RO         3430    .text               mf_w.l(dfltui.o)
    0x08000ac4   0x0000003a   Code   RO         3440    .text               mc_w.l(__dczerorl.o)
    0x08000afe   0x00000004   Code   RO          722    i.BusFault_Handler  stm32f1xx_it.o
    0x08000b02   0x00000002   PAD
    0x08000b04   0x00000014   Code   RO          171    i.DFOC_M0_ANGLE_PID  dengfoc.o
    0x08000b18   0x0000002c   Code   RO          172    i.DFOC_M0_Angle     dengfoc.o
    0x08000b44   0x00000014   Code   RO          173    i.DFOC_M0_VEL_PID   dengfoc.o
    0x08000b58   0x00000044   Code   RO          174    i.DFOC_M0_Velocity  dengfoc.o
    0x08000b9c   0x00000064   Code   RO          175    i.DFOC_M0_alignSensor  dengfoc.o
    0x08000c00   0x00000014   Code   RO          176    i.DFOC_M0_setTorque  dengfoc.o
    0x08000c14   0x00000064   Code   RO          179    i.DFOC_M0_set_Velocity_Angle  dengfoc.o
    0x08000c78   0x00000002   Code   RO          723    i.DebugMon_Handler  stm32f1xx_it.o
    0x08000c7a   0x00000006   Code   RO          507    i.Error_Handler     main.o
    0x08000c80   0x00000020   Code   RO         2593    i.FLASH_Program_HalfWord  stm32f1xx_hal_flash.o
    0x08000ca0   0x00000084   Code   RO         2594    i.FLASH_SetErrorCode  stm32f1xx_hal_flash.o
    0x08000d24   0x00000070   Code   RO         2595    i.FLASH_WaitForLastOperation  stm32f1xx_hal_flash.o
    0x08000d94   0x00000028   Code   RO          378    i.Flash_PageErase   stmflash.o
    0x08000dbc   0x00000028   Code   RO         1873    i.HAL_Delay         stm32f1xx_hal.o
    0x08000de4   0x00000014   Code   RO         2599    i.HAL_FLASH_Lock    stm32f1xx_hal_flash.o
    0x08000df8   0x000000b0   Code   RO         2604    i.HAL_FLASH_Program  stm32f1xx_hal_flash.o
    0x08000ea8   0x00000030   Code   RO         2606    i.HAL_FLASH_Unlock  stm32f1xx_hal_flash.o
    0x08000ed8   0x00000320   Code   RO         2188    i.HAL_GPIO_Init     stm32f1xx_hal_gpio.o
    0x080011f8   0x00000010   Code   RO         2190    i.HAL_GPIO_ReadPin  stm32f1xx_hal_gpio.o
    0x08001208   0x0000000c   Code   RO         2192    i.HAL_GPIO_WritePin  stm32f1xx_hal_gpio.o
    0x08001214   0x0000000c   Code   RO         1877    i.HAL_GetTick       stm32f1xx_hal.o
    0x08001220   0x00000018   Code   RO         1883    i.HAL_IncTick       stm32f1xx_hal.o
    0x08001238   0x00000028   Code   RO         1884    i.HAL_Init          stm32f1xx_hal.o
    0x08001260   0x0000004c   Code   RO         1885    i.HAL_InitTick      stm32f1xx_hal.o
    0x080012ac   0x00000054   Code   RO          822    i.HAL_MspInit       stm32f1xx_hal_msp.o
    0x08001300   0x00000020   Code   RO         2348    i.HAL_NVIC_EnableIRQ  stm32f1xx_hal_cortex.o
    0x08001320   0x0000007c   Code   RO         2354    i.HAL_NVIC_SetPriority  stm32f1xx_hal_cortex.o
    0x0800139c   0x00000028   Code   RO         2355    i.HAL_NVIC_SetPriorityGrouping  stm32f1xx_hal_cortex.o
    0x080013c4   0x0000018c   Code   RO         2041    i.HAL_RCC_ClockConfig  stm32f1xx_hal_rcc.o
    0x08001550   0x0000000c   Code   RO         2046    i.HAL_RCC_GetHCLKFreq  stm32f1xx_hal_rcc.o
    0x0800155c   0x00000020   Code   RO         2048    i.HAL_RCC_GetPCLK1Freq  stm32f1xx_hal_rcc.o
    0x0800157c   0x00000020   Code   RO         2049    i.HAL_RCC_GetPCLK2Freq  stm32f1xx_hal_rcc.o
    0x0800159c   0x00000070   Code   RO         2050    i.HAL_RCC_GetSysClockFreq  stm32f1xx_hal_rcc.o
    0x0800160c   0x00000464   Code   RO         2053    i.HAL_RCC_OscConfig  stm32f1xx_hal_rcc.o
    0x08001a70   0x00000034   Code   RO         2359    i.HAL_SYSTICK_Config  stm32f1xx_hal_cortex.o
    0x08001aa4   0x00000002   Code   RO         1599    i.HAL_TIMEx_BreakCallback  stm32f1xx_hal_tim_ex.o
    0x08001aa6   0x00000002   Code   RO         1600    i.HAL_TIMEx_CommutCallback  stm32f1xx_hal_tim_ex.o
    0x08001aa8   0x00000074   Code   RO         1602    i.HAL_TIMEx_ConfigBreakDeadTime  stm32f1xx_hal_tim_ex.o
    0x08001b1c   0x00000084   Code   RO         1618    i.HAL_TIMEx_MasterConfigSynchronization  stm32f1xx_hal_tim_ex.o
    0x08001ba0   0x00000066   Code   RO          884    i.HAL_TIM_Base_Init  stm32f1xx_hal_tim.o
    0x08001c06   0x00000002   PAD
    0x08001c08   0x000001c0   Code   RO          615    i.HAL_TIM_Base_MspInit  tim.o
    0x08001dc8   0x0000010c   Code   RO          893    i.HAL_TIM_ConfigClockSource  stm32f1xx_hal_tim.o
    0x08001ed4   0x00000200   Code   RO          508    i.HAL_TIM_IC_CaptureCallback  main.o
    0x080020d4   0x000000de   Code   RO          920    i.HAL_TIM_IC_ConfigChannel  stm32f1xx_hal_tim.o
    0x080021b2   0x00000066   Code   RO          923    i.HAL_TIM_IC_Init   stm32f1xx_hal_tim.o
    0x08002218   0x00000002   Code   RO          925    i.HAL_TIM_IC_MspInit  stm32f1xx_hal_tim.o
    0x0800221a   0x00000002   PAD
    0x0800221c   0x00000160   Code   RO          928    i.HAL_TIM_IC_Start_IT  stm32f1xx_hal_tim.o
    0x0800237c   0x0000016c   Code   RO          932    i.HAL_TIM_IRQHandler  stm32f1xx_hal_tim.o
    0x080024e8   0x00000058   Code   RO          616    i.HAL_TIM_MspPostInit  tim.o
    0x08002540   0x00000002   Code   RO          935    i.HAL_TIM_OC_DelayElapsedCallback  stm32f1xx_hal_tim.o
    0x08002542   0x00000104   Code   RO          956    i.HAL_TIM_PWM_ConfigChannel  stm32f1xx_hal_tim.o
    0x08002646   0x00000066   Code   RO          959    i.HAL_TIM_PWM_Init  stm32f1xx_hal_tim.o
    0x080026ac   0x00000002   Code   RO          961    i.HAL_TIM_PWM_MspInit  stm32f1xx_hal_tim.o
    0x080026ae   0x00000002   Code   RO          962    i.HAL_TIM_PWM_PulseFinishedCallback  stm32f1xx_hal_tim.o
    0x080026b0   0x000000d4   Code   RO          964    i.HAL_TIM_PWM_Start  stm32f1xx_hal_tim.o
    0x08002784   0x00000014   Code   RO          509    i.HAL_TIM_PeriodElapsedCallback  main.o
    0x08002798   0x00000032   Code   RO          972    i.HAL_TIM_ReadCapturedValue  stm32f1xx_hal_tim.o
    0x080027ca   0x0000006c   Code   RO          973    i.HAL_TIM_SlaveConfigSynchro  stm32f1xx_hal_tim.o
    0x08002836   0x00000002   Code   RO          975    i.HAL_TIM_TriggerCallback  stm32f1xx_hal_tim.o
    0x08002838   0x00000076   Code   RO         2904    i.HAL_UART_Init     stm32f1xx_hal_uart.o
    0x080028ae   0x00000002   PAD
    0x080028b0   0x00000084   Code   RO          681    i.HAL_UART_MspInit  usart.o
    0x08002934   0x00000004   Code   RO          724    i.HardFault_Handler  stm32f1xx_it.o
    0x08002938   0x00000044   Code   RO          429    i.IIC_Ack           softi2c.o
    0x0800297c   0x00000040   Code   RO          430    i.IIC_NAck          softi2c.o
    0x080029bc   0x00000064   Code   RO          431    i.IIC_Read_Byte     softi2c.o
    0x08002a20   0x0000006c   Code   RO          432    i.IIC_Send_Byte     softi2c.o
    0x08002a8c   0x00000040   Code   RO          433    i.IIC_Start         softi2c.o
    0x08002acc   0x00000040   Code   RO          434    i.IIC_Stop          softi2c.o
    0x08002b0c   0x00000060   Code   RO          435    i.IIC_Wait_Ack      softi2c.o
    0x08002b6c   0x00000008   Code   RO          310    i.LowPassFilter_Init  lowpass_filter.o
    0x08002b74   0x0000003c   Code   RO          311    i.LowPassFilter_Update  lowpass_filter.o
    0x08002bb0   0x0000019c   Code   RO          182    i.M0_setPwm         dengfoc.o
    0x08002d4c   0x00000378   Code   RO          183    i.M0_setTorque      dengfoc.o
    0x080030c4   0x000000c4   Code   RO          590    i.MX_GPIO_Init      gpio.o
    0x08003188   0x000000fc   Code   RO          617    i.MX_TIM1_Init      tim.o
    0x08003284   0x000000e0   Code   RO          618    i.MX_TIM2_Init      tim.o
    0x08003364   0x000000e0   Code   RO          619    i.MX_TIM3_Init      tim.o
    0x08003444   0x000000e0   Code   RO          620    i.MX_TIM4_Init      tim.o
    0x08003524   0x00000038   Code   RO          682    i.MX_USART2_UART_Init  usart.o
    0x0800355c   0x00000004   Code   RO          725    i.MemManage_Handler  stm32f1xx_it.o
    0x08003560   0x00000004   Code   RO          726    i.NMI_Handler       stm32f1xx_it.o
    0x08003564   0x0000001a   Code   RO          344    i.PID_Init          pid.o
    0x0800357e   0x00000080   Code   RO          345    i.PID_Update        pid.o
    0x080035fe   0x00000002   Code   RO          727    i.PendSV_Handler    stm32f1xx_it.o
    0x08003600   0x00000028   Code   RO         2054    i.RCC_Delay         stm32f1xx_hal_rcc.o
    0x08003628   0x00000044   Code   RO          184    i.S0_electricalAngle  dengfoc.o
    0x0800366c   0x0000002c   Code   RO          436    i.SDA_IN            softi2c.o
    0x08003698   0x0000002c   Code   RO          437    i.SDA_OUT           softi2c.o
    0x080036c4   0x00000022   Code   RO          379    i.STMFLASH_Read     stmflash.o
    0x080036e6   0x00000006   Code   RO          380    i.STMFLASH_ReadHalfWord  stmflash.o
    0x080036ec   0x00000108   Code   RO          381    i.STMFLASH_Write    stmflash.o
    0x080037f4   0x0000002c   Code   RO          382    i.STMFLASH_Write_NoCheck  stmflash.o
    0x08003820   0x00000002   Code   RO          728    i.SVC_Handler       stm32f1xx_it.o
    0x08003822   0x00000002   PAD
    0x08003824   0x00000070   Code   RO           13    i.Sensor_update     as5600.o
    0x08003894   0x0000000c   Code   RO          729    i.SysTick_Handler   stm32f1xx_it.o
    0x080038a0   0x00000438   Code   RO          510    i.SysTick_callback  main.o
    0x08003cd8   0x00000062   Code   RO          511    i.SystemClock_Config  main.o
    0x08003d3a   0x00000002   Code   RO         3248    i.SystemInit        system_stm32f1xx.o
    0x08003d3c   0x00000010   Code   RO          730    i.TIM1_UP_IRQHandler  stm32f1xx_it.o
    0x08003d4c   0x00000010   Code   RO          731    i.TIM2_IRQHandler   stm32f1xx_it.o
    0x08003d5c   0x00000010   Code   RO          732    i.TIM3_IRQHandler   stm32f1xx_it.o
    0x08003d6c   0x00000010   Code   RO          733    i.TIM4_IRQHandler   stm32f1xx_it.o
    0x08003d7c   0x00000084   Code   RO          977    i.TIM_Base_SetConfig  stm32f1xx_hal_tim.o
    0x08003e00   0x00000022   Code   RO          978    i.TIM_CCxChannelCmd  stm32f1xx_hal_tim.o
    0x08003e22   0x00000016   Code   RO          988    i.TIM_ETR_SetConfig  stm32f1xx_hal_tim.o
    0x08003e38   0x00000012   Code   RO          989    i.TIM_ITRx_SetConfig  stm32f1xx_hal_tim.o
    0x08003e4a   0x00000002   PAD
    0x08003e4c   0x00000060   Code   RO          990    i.TIM_OC1_SetConfig  stm32f1xx_hal_tim.o
    0x08003eac   0x00000068   Code   RO          991    i.TIM_OC2_SetConfig  stm32f1xx_hal_tim.o
    0x08003f14   0x00000068   Code   RO          992    i.TIM_OC3_SetConfig  stm32f1xx_hal_tim.o
    0x08003f7c   0x00000048   Code   RO          993    i.TIM_OC4_SetConfig  stm32f1xx_hal_tim.o
    0x08003fc4   0x000000b2   Code   RO          994    i.TIM_SlaveTimer_SetConfig  stm32f1xx_hal_tim.o
    0x08004076   0x00000026   Code   RO          995    i.TIM_TI1_ConfigInputStage  stm32f1xx_hal_tim.o
    0x0800409c   0x00000068   Code   RO          996    i.TIM_TI1_SetConfig  stm32f1xx_hal_tim.o
    0x08004104   0x00000028   Code   RO          997    i.TIM_TI2_ConfigInputStage  stm32f1xx_hal_tim.o
    0x0800412c   0x0000003a   Code   RO          998    i.TIM_TI2_SetConfig  stm32f1xx_hal_tim.o
    0x08004166   0x00000038   Code   RO          999    i.TIM_TI3_SetConfig  stm32f1xx_hal_tim.o
    0x0800419e   0x0000003c   Code   RO         1000    i.TIM_TI4_SetConfig  stm32f1xx_hal_tim.o
    0x080041da   0x00000002   PAD
    0x080041dc   0x000000fc   Code   RO         2931    i.UART_SetConfig    stm32f1xx_hal_uart.o
    0x080042d8   0x00000004   Code   RO          734    i.UsageFault_Handler  stm32f1xx_it.o
    0x080042dc   0x00000028   Code   RO         3422    i.__ARM_fpclassify  m_ws.l(fpclassify.o)
    0x08004304   0x00000010   Code   RO         2361    i.__NVIC_GetPriorityGrouping  stm32f1xx_hal_cortex.o
    0x08004314   0x00000028   Code   RO         2362    i.__NVIC_SetPriority  stm32f1xx_hal_cortex.o
    0x0800433c   0x00000388   Code   RO         3377    i.__ieee754_rem_pio2  m_ws.l(rred.o)
    0x080046c4   0x000000fc   Code   RO         3360    i.__kernel_cos      m_ws.l(cos_i.o)
    0x080047c0   0x000000aa   Code   RO         3424    i.__kernel_poly     m_ws.l(poly.o)
    0x0800486a   0x00000002   PAD
    0x0800486c   0x000000ec   Code   RO         3382    i.__kernel_sin      m_ws.l(sin_i.o)
    0x08004958   0x00000006   Code   RO         3364    i.__mathlib_dbl_infnan  m_ws.l(dunder.o)
    0x0800495e   0x0000000c   Code   RO         3366    i.__mathlib_dbl_invalid  m_ws.l(dunder.o)
    0x0800496a   0x00000002   PAD
    0x0800496c   0x00000010   Code   RO         3369    i.__mathlib_dbl_underflow  m_ws.l(dunder.o)
    0x0800497c   0x0000000e   Code   RO         3434    i.__scatterload_copy  mc_w.l(handlers.o)
    0x0800498a   0x00000002   Code   RO         3435    i.__scatterload_null  mc_w.l(handlers.o)
    0x0800498c   0x0000000e   Code   RO         3436    i.__scatterload_zeroinit  mc_w.l(handlers.o)
    0x0800499a   0x00000002   PAD
    0x0800499c   0x0000000c   Code   RO         3408    i.__set_errno       mc_w.l(errno.o)
    0x080049a8   0x00000044   Code   RO          185    i._normalizeAngle   dengfoc.o
    0x080049ec   0x00000044   Code   RO           14    i.bsp_as5600GetRawAngle  as5600.o
    0x08004a30   0x0000009c   Code   RO         3282    i.cos               m_ws.l(cos.o)
    0x08004acc   0x0000000c   Code   RO          438    i.delay_s           softi2c.o
    0x08004ad8   0x000000dc   Code   RO         3290    i.floor             m_ws.l(floor.o)
    0x08004bb4   0x00000094   Code   RO         3294    i.fmod              m_ws.l(fmod.o)
    0x08004c48   0x0000002c   Code   RO           15    i.getAngle          as5600.o
    0x08004c74   0x0000000c   Code   RO           16    i.getMechanicalAngle  as5600.o
    0x08004c80   0x00000034   Code   RO           17    i.getSensorAngle    as5600.o
    0x08004cb4   0x000000c4   Code   RO           18    i.getVelocity       as5600.o
    0x08004d78   0x00000414   Code   RO          512    i.main              main.o
    0x0800518c   0x0000001e   Code   RO          513    i.scale_to_range    main.o
    0x080051aa   0x00000002   PAD
    0x080051ac   0x00000200   Code   RO          186    i.setTorque         dengfoc.o
    0x080053ac   0x000000a0   Code   RO         3302    i.sin               m_ws.l(sin.o)
    0x0800544c   0x0000004c   Code   RO         3310    i.sqrt              m_ws.l(sqrt.o)
    0x08005498   0x00000012   Data   RO         2055    .constdata          stm32f1xx_hal_rcc.o
    0x080054aa   0x00000018   Data   RO         3249    .constdata          system_stm32f1xx.o
    0x080054c2   0x00000006   PAD
    0x080054c8   0x00000030   Data   RO         3361    .constdata          m_ws.l(cos_i.o)
    0x080054f8   0x000000c8   Data   RO         3379    .constdata          m_ws.l(rred.o)
    0x080055c0   0x00000028   Data   RO         3383    .constdata          m_ws.l(sin_i.o)
    0x080055e8   0x00000020   Data   RO         3432    Region$$Table       anon$$obj.o


    Execution Region RW_IRAM1 (Base: 0x20000000, Size: 0x00000cd0, Max: 0x00005000, ABSOLUTE, COMPRESSED[0x00000024])

    Base Addr    Size         Type   Attr      Idx    E Section Name        Object

    0x20000000   0x00000068   Data   RW           19    .data               as5600.o
    0x20000068   0x00000054   Data   RW          188    .data               dengfoc.o
    0x200000bc   0x00000004   PAD
    0x200000c0   0x00000080   Data   RW          515    .data               main.o
    0x20000140   0x00000009   Data   RW         1891    .data               stm32f1xx_hal.o
    0x20000149   0x00000003   PAD
    0x2000014c   0x00000004   Data   RW         3250    .data               system_stm32f1xx.o
    0x20000150   0x00000004   Data   RW         3409    .data               mc_w.l(errno.o)
    0x20000154   0x0000007c   Zero   RW          187    .bss                dengfoc.o
    0x200001d0   0x00000420   Zero   RW          383    .bss                stmflash.o
    0x200005f0   0x00000158   Zero   RW          514    .bss                main.o
    0x20000748   0x00000120   Zero   RW          621    .bss                tim.o
    0x20000868   0x00000048   Zero   RW          683    .bss                usart.o
    0x200008b0   0x00000020   Zero   RW         2607    .bss                stm32f1xx_hal_flash.o
    0x200008d0   0x00000400   Zero   RW            1    STACK               startup_stm32f103xb.o


==============================================================================

Image component sizes


      Code (inc. data)   RO Data    RW Data    ZI Data      Debug   Object Name

       484         96          0        104          0     431471   as5600.o
      2320        198          0         84        124       9035   dengfoc.o
       196         14          0          0          0        907   gpio.o
        68          4          0          0          0       1925   lowpass_filter.o
      2790        250          0        128        344      10989   main.o
       154          0          0          0          0       2188   pid.o
       664         42          0          0          0       4936   softi2c.o
        36          8        236          0       1024        800   startup_stm32f103xb.o
       192         36          0          9          0       5837   stm32f1xx_hal.o
       304         22          0          0          0      29335   stm32f1xx_hal_cortex.o
       520         48          0          0         32       4110   stm32f1xx_hal_flash.o
       828         34          0          0          0       3279   stm32f1xx_hal_gpio.o
        84          8          0          0          0        890   stm32f1xx_hal_msp.o
      1748         98         18          0          0       5912   stm32f1xx_hal_rcc.o
      3268         80          0          0          0      22556   stm32f1xx_hal_tim.o
       252         14          0          0          0       3165   stm32f1xx_hal_tim_ex.o
       370          4          0          0          0       1736   stm32f1xx_hal_uart.o
       102         24          0          0          0       5717   stm32f1xx_it.o
       388         20          0          0       1056       3731   stmflash.o
         2          0         24          4          0       1107   system_stm32f1xx.o
      1460         72          0          0        288       5191   tim.o
       188         22          0          0         72       1626   usart.o

    ----------------------------------------------------------------------
     16434       1094        316        336       2940     556443   Object Totals
         0          0         32          0          0          0   (incl. Generated)
        16          0          6          7          0          0   (incl. Padding)

    ----------------------------------------------------------------------

      Code (inc. data)   RO Data    RW Data    ZI Data      Debug   Library Member Name

       156          8          0          0          0        104   cos.o
       252         22         48          0          0        124   cos_i.o
        34          6          0          0          0        204   dunder.o
       220         16          0          0          0         84   floor.o
       148          4          0          0          0         88   fmod.o
        40          0          0          0          0         68   fpclassify.o
       170          0          0          0          0         96   poly.o
       904         76        200          0          0        140   rred.o
       160         10          0          0          0        108   sin.o
       236         12         40          0          0        128   sin_i.o
        76          0          0          0          0         84   sqrt.o
        58          0          0          0          0          0   __dczerorl.o
         0          0          0          0          0          0   entry.o
         0          0          0          0          0          0   entry10a.o
         0          0          0          0          0          0   entry11a.o
         8          4          0          0          0          0   entry2.o
         4          0          0          0          0          0   entry5.o
         0          0          0          0          0          0   entry7b.o
         0          0          0          0          0          0   entry8b.o
         8          4          0          0          0          0   entry9a.o
        12          6          0          4          0         68   errno.o
        30          0          0          0          0          0   handlers.o
        36          8          0          0          0         68   init.o
         0          0          0          0          0          0   iusefp.o
        30          0          0          0          0         68   llshl.o
        36          0          0          0          0         68   llsshr.o
        32          0          0          0          0         68   llushr.o
        36          0          0          0          0        108   memseta.o
        48          0          0          0          0         68   cdcmple.o
        48          0          0          0          0         68   cdrcmple.o
        20          0          0          0          0         68   cfcmple.o
        20          0          0          0          0         68   cfrcmple.o
        56          0          0          0          0         88   d2f.o
       334          0          0          0          0        148   dadd.o
       222          0          0          0          0        100   ddiv.o
       186          0          0          0          0        176   depilogue.o
        62          0          0          0          0         80   dfixi.o
        34          0          0          0          0         76   dflti.o
        26          0          0          0          0         76   dfltui.o
       228          0          0          0          0         96   dmul.o
       134          0          0          0          0         96   drem.o
        46          0          0          0          0         80   dscalb.o
       162          0          0          0          0        100   dsqrt.o
        38          0          0          0          0         68   f2d.o
       176          0          0          0          0        140   fadd.o
       124          0          0          0          0         88   fdiv.o
       110          0          0          0          0        168   fepilogue.o
        50          0          0          0          0         68   ffixi.o
        40          0          0          0          0         68   ffixui.o
        18          0          0          0          0         68   fflti.o
        10          0          0          0          0         68   ffltui.o
       100          0          0          0          0         76   fmul.o

    ----------------------------------------------------------------------
      4986        176        288          4          0       3876   Library Totals
         8          0          0          0          0          0   (incl. Padding)

    ----------------------------------------------------------------------

      Code (inc. data)   RO Data    RW Data    ZI Data      Debug   Library Name

      2396        154        288          0          0       1228   m_ws.l
       290         22          0          4          0        448   mc_w.l
      2292          0          0          0          0       2200   mf_w.l

    ----------------------------------------------------------------------
      4986        176        288          4          0       3876   Library Totals

    ----------------------------------------------------------------------

==============================================================================


      Code (inc. data)   RO Data    RW Data    ZI Data      Debug   

     21420       1270        604        340       2940     551867   Grand Totals
     21420       1270        604         36       2940     551867   ELF Image Totals (compressed)
     21420       1270        604         36          0          0   ROM Totals

==============================================================================

    Total RO  Size (Code + RO Data)                22024 (  21.51kB)
    Total RW  Size (RW Data + ZI Data)              3280 (   3.20kB)
    Total ROM Size (Code + RO Data + RW Data)      22060 (  21.54kB)

==============================================================================

